:020000040000FA
:100000000203370218034100C4002202180B222207
:0100100022CD
:07001300021813E4FFA10E27
:07001B0002181B75C8012249
:030023000218239D
:03002B0002182B8D
:030033000218337D
:03003B0002183B6D
:030043000218435D
:03004B0002184B4D
:030053000218533D
:03005B0002185B2D
:030063000218631D
:03006B0002186B0D
:10007300021873BB010689828A83E0225002E722B9
:10008300BBFE02E32289828A83E49322BB010CE54F
:100093008229F582E5833AF583E0225006E9258239
:1000A300F8E622BBFE06E92582F8E222E58229F57D
:1000B30082E5833AF583E49322BB010689828A832E
:1000C300F0225002F722BBFE01F322F8BB010DE53B
:1000D3008229F582E5833AF583E8F0225006E92583
:1000E30082C8F622BBFE05E92582C8F222C5F0F8D4
:1000F300A3E028F0C5F0F8E582158270021583E0CD
:1001030038F022A3F8E0C5F025F0F0E582158270FF
:10011300021583E0C838F0E822BB010A89828A838A
:10012300E0F5F0A3E022500687F009E71922BBFEB1
:1001330007E3F5F009E3192289828A83E493F5F052
:1001430074019322BB010A89828A83F0E5F0A3F04C
:10015300225006F709A7F01922BBFE06F3E5F009C2
:10016300F31922EF2BFFEE3AFEED39FDEC38FC22BA
:10017300C3EF9BFFEE9AFEED99FDEC98FC2275F020
:1001830008758200EF2FFFEE33FECD33CDCC33CC99
:10019300C58233C5829BED9AEC99E58298400CF5B4
:1001A30082EE9BFEED9AFDEC99FC0FD5F0D6E4CEE2
:1001B300FBE4CDFAE4CCF9A88222B800C1B9005916
:1001C300BA002DEC8BF084CFCECDFCE5F0CBF978E3
:1001D30018EF2FFFEE33FEED33FDEC33FCEB33FB77
:1001E30010D703994004EB99FB0FD8E5E4F9FA2201
:1001F3007818EF2FFFEE33FEED33FDEC33FCC933FC
:10020300C910D7059BE99A4007EC9BFCE99AF90FC3
:10021300D8E0E4C9FAE4CCFB2275F010EF2FFFEE2F
:1002230033FEED33FDCC33CCC833C810D7079BEC7A
:100233009AE899400AED9BFDEC9AFCE899F80FD5F2
:10024300F0DAE4CDFBE4CCFAE4C8F922EF5BFFEE8D
:100253005AFEED59FDEC58FC22EB9FF5F0EA9E4265
:10026300F0E99D42F0E89C45F022E8600FECC313EF
:10027300FCED13FDEE13FEEF13FFD8F122E8600F40
:10028300EFC333FFEE33FEED33FDEC33FCD8F12245
:10029300E0FCA3E0FDA3E0FEA3E0FF22E0F8A3E07F
:1002A300F9A3E0FAA3E0FB22ECF0A3EDF0A3EEF058
:1002B300A3EFF022A8828583F0D083D0821202CEEE
:1002C3001202CE1202CE1202CEE473E493A3C583CC
:1002D300C5F0C583C8C582C8F0A3C583C5F0C5836F
:1002E300C8C582C822E0FBA3E0FAA3E0F922F8E044
:1002F300FBA3A3E0F925F0F0E582158270021583D4
:10030300E0FA38F022EBF0A3EAF0A3E9F022D0837D
:10031300D082F8E4937012740193700DA3A393F841
:10032300740193F5828883E4737402936860EFA386
:10033300A3A380DF75814B02079BAEFFEE54CFFE74
:10034300EFC454F024804EF5FF2290091151AB9075
:1003530009115193B1A1900915E06F6034110F9108
:1003630002EF6004111080F7B11AB1DB9000BAE01C
:10037300FF91E6600990091151937810719A9009E1
:1003830011719690091191EF900915E0FFB108D30F
:1003930022C32251937808516DE4E5C820E2FB8F14
:1003A300EB229000D151AB9000D57108110F91024F
:1003B300EF6004111080F7B11AB1DB9000BAE0FFCF
:1003C30091E660099000D151937810719A9000D111
:1003D30071969000D15193E4801B9000D8D1BB60FB
:1003E300189000D551E8EA494B60089000D5120EE9
:1003F3002B8001E4FF719D80E1B126E4FFA10E7F14
:1004030001B10E30021491D8915290092AEFF0B144
:100413002690092AE020E002C2023002179141909F
:1004230000B8EF91F4600BA3E0F46006EF30E7024D
:10043300C202B126E4FFB10EA202E433FF22B1DB14
:100443007FD7719D7FFF719D91569000B7EFF07F2D
:10045300FF719DE5C820E2FBAFEB227F01B10E9057
:1004630009287401F0900928E0602E91D8915290E8
:100473000928EFF0B12691419000B8EFF0B1269032
:100483000928E0540191F460DCA3E0F460D7EF3075
:10049300E7D3E4900928F080CCB1DB7F9F719D9175
:1004A300529000B991509000BE91509000BFEFF070
:1004B300B10A9000B7E0F4601BA3E0F4601690006B
:1004C300BEE0FD541F240FA3F0EDC4135407448072
:1004D3009000BEF022B1DB7F05619D7F01B10EB1BB
:1004E300DB7F03719D9000BDE06402225193E461C0
:0904F3009DF09000B7E0FFF42237
:10050800719DB126E4FFEFB4010443FE202253FE9F
:10051800DF227F01B10ED202B1DB7F06719D12137B
:10052800E7EF70FA9000BEE0F4600A9009277406BD
:10053800F0F17D70FC9000BCE07111055F04056767
:1005480014056C15057117058130058634058B3641
:1005580005903700000579434610854680802F4373
:100568004710800843472080034347808547908091
:100578001D4348208548A08015434901800D434903
:1005880010800843494080034349808549B0900959
:1005980027740CF0F17D70FC2290090C51AB110FFF
:1005A8009102EF6004111080F791DE600990090C48
:1005B80051937810719A90090C719690090C91EFEB
:1005C8009152900910EFF0B10A900910E0FF227FD4
:1005D80001B10E9000BCE0711105FD04060514067A
:1005E8000A15060F17061F30062434062936062E6C
:1005F80037000006175346EF854680802F5347EF94
:1006080080085347DF800353477F854790801D53F9
:1006180048DF8548A080155349FE800D5349EF8077
:10062800085349BF800353497F8549B07F0CDFFEDB
:1006380022110F9102EF6004111080F7B11AB1DB9B
:100648007F01719D7F03719DB126E4FFA10E90008B
:10065800DA51AB9000DE7108110F9102EF600411BE
:100668001080F791DE60099000DA51937810719A42
:100678009000DA71969000DA91EF9000E1D1BB60BA
:100688001291529000DE51E8EF11BC9000DF121277
:10069800AA80E7B126E4FFA10E9000B7E020E0129F
:1006A800B1D77F3D719D7F2A719D7F80719D7FA607
:1006B800B1082274FFF5F0310645F022900929EFC0
:1006C800F09000C5E064027022B1D7900929E07F5C
:1006D800AB60027FB9719DB126900929E09000C4F2
:1006E800F070047F1EDFFEE4FFB10E22900000EEE2
:0806F800F0A3EFF0A351939071
:10070000000851AB900006E0FFA3E090000CCF8002
:100710005D90000C120FDC605BC3EF9440EE940020
:100720004006A37440F0800590000EEFF0F185E0E4
:10073000FF120D0DEFF09000085193D15690000E6E
:10074000E0FFC390000DE09FF090000CE09400F0FB
:10075000900008519F90000EE4FCFDFE3166900071
:100760000851ABF174F185120C32900000EEF0A349
:10077000EFF0809D900000E0FEA3E0FF22900927AB
:10078000E014F0E0227B017A00790F90000E221134
:100790000F9102EF6004111080F72275FF03759E20
:1007A000029017FAE493F53C75FF02E5E654036006
:1007B00003020B5D753CDE753DAD753EBE753FEFCA
:1007C000C2AF75FF0275E404F5E47546FF7547FF97
:1007D0007548FF7549FF7542FF7543FF7544FF7506
:1007E00045FF75FF0253E6BF1212CD1210D4120F4F
:1007F000E3EF64016003020B5490180893FE740148
:1008000093FF9000ADEEF0A3EFF0F5828E83E493BA
:10081000F540740193F541740293F54A740393F51E
:100820004B740493F530740593F531740693F532E7
:10083000740793F533C201EF4E7002212BEFF4FFE2
:10084000EEF44F7002212BE540454AFEE541454B51
:10085000FFE5304EFEE5314FFFE5324EFEE5334F0A
:100860004E7002212BE54BF4FFE54AF4FEE541F41E
:10087000FDE540F44EFEED4FFFE531F4FDE530F4CB
:100880004EFEEF4DFFE533F4FDE532F44EFEEF4D45
:100890004E7002212B7F0312033DE53324FFFFE559
:1008A00032B124640370247F0212033DE53124FF3A
:1008B000FFE530B124B402137F0112033DE54B2460
:1008C000FFFFE54AB124B40102D20120015D7F019E
:1008D00012033DB1459000E8E54AF0A3E54BF07FF7
:1008E0000F7E1D91A57F02B13A9000E8E530F0E55A
:1008F0003191A37F03B13A9000E8E532F0E53391FE
:10090000A37F0112033D900922E0FEA3E0FF7BFFDD
:100910007A187900E425419000E9F0E54034E89048
:1009200000E891A44EC37001D39201300109B19A3D
:10093000EF6401600261549000ADE0FEA3E0F58237
:100940008E83740C93F53A740D93F53B90009612D8
:1009500002937160900079B181FD9000AF7188EFD2
:100960002408FFE43E71727B007A007938B10D747F
:1009700002F0120656C200D3900078E0953990003C
:1009800077E09538400241639000AF12029FC000AB
:10099000C001C002C003AE38AF39E4FCFDC006C0E0
:1009A00007900077E0FEA3E0FBAA06E4F9F8D00781
:1009B000D006120173D003D002D001D0001201661C
:1009C000716090007B120293EF24F2FFEE34FFB1CE
:1009D0004C9000AFB1D4400241639000AF1202933B
:1009E0007A00799FB10B740EF01206569000ABE0BE
:1009F000F536A3E0F5379000A1E0F54AA3E0F54B0A
:100A0000A3E0F530A3E0F531A3E0F532A3E0F53340
:100A1000900092120293EF24FFFFEE347F71727107
:100A200060AE4AAF4BE4FCFD9000AF71881205A1A7
:100A3000EF6401702E71667160AE30AF31E4FCFD81
:100A40009000AF71881205A1BF021871667160AE87
:100A500032AF33E4FCFD9000AF71881205A1BF03F3
:100A600002D200200002615030010EE53B65377074
:100A700004E53A6536700261507B017A097922718A
:100A80008E4002615090009B1202B7000018007166
:100A90007A612A7440D395345002613F90007B9173
:100AA000B3EE34F8B14C9000AF12029FD312025C47
:100AB0004002613F90009B1202937B007AF879011B
:100AC0007800C312025C40779000AF1202930B7A59
:100AD0000179009000E17408F0A3E4F0120656E4F6
:100AE000F535FB91DFAF34B156E535C3940850209E
:100AF00091DDE5357F00FEEF2400F974013EFA7BBD
:100B00000190090BE535F0AD34121330053580D96D
:100B100090009B91B3EE3408717290009B1202AB6F
:100B20009000AF91B3EE340871727160E4FB7A0803
:100B3000F9F890009B1202931201BD8F3441937417
:100B400040D39534400A91DDAF34B156053480EF7F
:100B5000E4FFB1DBE4F53CF53DF53EF53F0218005E
:100B60009000AF0202AB9000AF120293E42FFFEEB1
:100B70003480FEE43DFDE43CFC22900079E0FEA3DD
:100B8000E0FFE4FCFD90009612029F0201669009CE
:100B90001F120308717AEF2408FFE43E71727A0095
:100BA000797FB10B7402F012065690007FB181FD7F
:100BB00090009271887B017A007984B10D740EF0F7
:100BC000120656900092716991C2900086B12D7FF5
:100BD0000F7E1D91C8B114C006C00791B0E43E91CC
:100BE000BA900088B12DD007D00691C8B114C006C4
:100BF000C00791B0EE348091BA90008AB12DD00731
:100C0000D00691C8B114C006C007717A91C2900095
:100C100085E02400FE900084E034E8900006F0A314
:100C2000CEF0D007D00691C812011C45F0C3700168
:100C3000D322E0FD9000E8E4F0A3EDF09000E3EEB5
:100C4000F0A3EFF0A31203089000E81206BB604A7D
:100C50009000E5D12B9000EAF07D80ED60EA919A5A
:100C6000EE7C0030E7027C019000EAE05D7B0060F2
:100C7000027B01EB6CFCEF25E0FFEE339000E3F02C
:100C8000A3EFF0AF04EF600C9000E3E06410F0A37A
:100C9000E06421F0EDC313FD80C19000E3E0FEA30A
:100CA000E0FF22A3F0913C900922EEF0A3EFF022A6
:100CB000900092120293E42FFF22FEED3401FDE436
:100CC0003CFC9000020202AB1206F490091F1202D3
:100CD000E8EE8FF012014790091F0202E87B007ACC
:100CE00000793CB17A75FF03120076F5D375FF03E6
:100CF000900001B11B900002B11B900003B11B7565
:100D0000D40175FF03E5D55402FF227B019000E179
:100D1000E4F0A32212011CFFAEF02212008FF5D3E3
:100D200075FF0322347F8F82F583E49322E0FFA3D3
:100D3000E0900006CFF0A3EFF02212033D900922CD
:100D4000E0FEA3E0FF7BFF7A80790022FEED34FF16
:100D5000FDEC34FFFC2275FF03EF543F4480F5D1D6
:100D6000E5D520E20AE5D520E005E5D530E1F1E55D
:100D7000D55403FF75FF0375D50575FF0375D402C0
:100D800022E0FEA3E0FFE4FC227F0F7E1D91349061
:100D900000EF1202E89000F28132E4900926F09010
:100DA000009AE06020B1CB70087FFF7E77FDFC8069
:100DB0000CD11B50107FFF7EFF7D017C001205A12E
:100DC000900926EFF0900926E0FF22E4FFFE7D0265
:100DD000FC90007B12029FC302025C900924EFF09A
:100DE000E4A3F090009AE06021B1CB7008D1107EAE
:100DF000777D00800AD11B5011D1107EFF7D017CD0
:100E00000012034DE433900925F0900925E0FF22FC
:100E1000900924E0900915F07FFF2290007B1202D8
:100E200093E4FBFA7904F8D302025CE475F0011252
:100E300002F1020076B17A75FF03E5D5F45402FFA2
:100E4000229000FCD15CC0079000FC1202E89000E8
:100E5000FFE0FFB10DEFF0D007020656120308E4E1
:100E6000FCFD22900902D15CC0079009021202E841
:100E7000900905F1D0F0D00790004F1202AB90001E
:100E800053120308E4900076F0D3900057E0941ECC
:100E9000900056E094004001227B017A007958903E
:100EA0000056E0FFA3E09000E1CFF0A3EFF0900048
:100EB0004F1202931206569000531202E8E94A605C
:100EC0000F900076E0F58275830012008FFF80029C
:100ED0007F00900076E02458F582E43400F583E04A
:100EE0006F6002C322900076E004FFF0D3900057B9
:100EF000E09F900056E0940050BD229000C6120280
:100F0000AB9000CA1203081214389000CDF1D0F053
:100F10009000C6120293D1785002E1C59000C1E062
:100F200024FFFF9000C0E034FFFEE4FCFD9000C60B
:100F300012029F12024F9000CFEEF0A3EFF04E602E
:100F40003BF1C7C39000C1E09FFF9000C0E09EFE50
:100F50009000CFF0A3EFF09000CDE0FCA3E0FDD334
:100F60009FEC9E5006A3ECF0A3EDF01213F3E94AB8
:100F70006004F1C780427E007F00803C9000CDF18C
:100F8000DC60409000C0E0FCA3E0FDD3EF9DEE9C50
:100F9000400A9000CFECF0A3EDF0800D9000CDE082
:100FA000FFA3E0A3CFF0A3EFF01213F3E94A60042C
:100FB000F1C780047E007F009000CBEE8FF012001E
:100FC000F080B9D322C3229000CFE0FEA3E0FF223D
:100FD000E0FFA3E0900056CFF0A3EF22E0FEA3E0F5
:100FE000FF4E22E490009AF07B017A00798112137F
:100FF00078900083E0FBB411229000961202B700B3
:101000000078009000921202B70000600090007714
:101010007418F0A3E4F0A3F0A380277412D39B50BC
:10102000279000961202B700020000900092120270
:10103000B700020000E4900077F0A3F0A37418F06A
:10104000A3E4F090009A04F090009AE0FB6017E4AB
:10105000FFFE7D02FC900083E024EFF9F81202808D
:1010600090007B1202ABAF032275FF03E4F59751AA
:10107000B1E59720E1FB75FF03AF9922900916EFC8
:10108000F0A3EDF0A3120308900917E06045901259
:1010900015E06012900916E02410FF1169900918FC
:1010A0001202E8EF8017900916E0640190091870A9
:1010B000071202E8748080051202E874FF1200BC77
:1010C00090091951AA900917E014F0900916E0044C
:1010D000F080B5227B017A0079BC7F0351917A00C0
:1010E00079C57F0851917A0079C27D027F09117C10
:1010F0007B017A0079C07D027F0B117C9000C012C9
:101100000FDC6006BEFF1BBFFF189000C5E024FD8A
:10111000600304700451A080099000C0E4F0A3743F
:1011200040F09000C5E024FD60030470089000BD0D
:101130007403F080069000BD7402F09000BCE012D1
:101140000311115E04116914117115117917118FB2
:1011500030119734119F3611A7370000118475FFA5
:10116000015342EF8542FD804775FF015343EF80F5
:101170000E75FF015343DF800675FF0153437F85E2
:1011800043C9802C75FF015344DF8544CA80217513
:10119000FF015345FE801675FF015345EF800E7524
:1011A000FF015345BF800675FF0153457F8545CB41
:1011B0001205267F11518BE4FF1206C412045E90C3
:1011C00000BA7402F09000BEE0247F60090470163B
:1011D0005198740A80071206A151987458F0900033
:1011E000BD7403F051A09000BFE0F460024188900C
:1011F00000C2E0FEA3E0FF64104E70069000BF74D2
:101200000EF0EF64204E70069000BF740FF0EF6494
:10121000404E70069000BF7410F0EF64804E700670
:101220009000BF7411F0E4B5070AEEB40106900017
:10123000BF7412F0E4B5070AEEB402069000BF7462
:1012400013F0E4B5070AEEB404069000BF7414F07E
:10125000E4B5070AEEB408069000BF7415F0E4B5D3
:10126000070AEEB410069000BF7416F0E4B5070A42
:10127000EEB420069000BF7417F0E4B5070AEEB490
:1012800040069000BF7418F0020639EF4420F5FEC6
:10129000227D01117C7B01227F10518B9000BA22AC
:1012A0009000C07401F0A3E4F022E475F0010200A4
:1012B000F075FF038F9875FF032275FF0375970183
:1012C00051B1E59720E1FB75FF03AF992290091B0F
:1012D0007410F090091BE0FFD3947F503D1169908A
:1012E000091CEFF090091BE0B410067E1D7F0F80F3
:1012F0000890091DE0FEA3E0FF7B017A09791C90AC
:1013000000E8E4F0A304F0120C3C90091DEEF0A3F9
:10131000EFF090091BE004F080B990091DE0700225
:10132000A3E07F0070027F01901215EFF024FF22EE
:1013300075FF03ACD5EC20E13C75FF03ED543FF5A0
:10134000D175FF03E9F5D375FF03EA540FFF900948
:101350000BE0C4547044804FF5D2E5D520E205E59A
:10136000D530E0F6E5D55401FC75FF0343D4027592
:10137000FF0375D505AF04229000B9E01200BC90C0
:1013800000BEE09000011200CE9000BFE09000028D
:101390000200CEE4FCFD0205A1AB05E4FCFD9009D2
:1013A00015EBF002034D9000F5120E5CC0079000A3
:1013B000F51202E89000F8E0FFA3E09000CDCFF036
:1013C000A3EFF0D007020EFBEFB40109D2AD75FF19
:1013D0000143AE4022C2AD75FF0153AEBF22E5C846
:1013E0005402FF75C80222E5C85404FF22E5C85420
:1013F00001FF229000CA1202E89000CFE0FFA3E0B4
:101400009000D8CFF0A3EFF09000C6120293120321
:10141000A59000CFE0FEA3E0FFC39000CEE09FF0D8
:101420009000CDE09EF09000C612029FE4FCFD12F9
:0E14300001669000C61202AB9000CA0202E8EC
:1017FA000418FFFEFFFF022BC61CE11CDC227FB887
:10180A00EF90181393901900730A20364CE57BFF6A
:10181A0022EFF57B221CE61CEB1CF01CF51CFA1AC5
:10182A003E023E09000DFA20000DFA2000000000D9
:10183A00020C00003F3F3F0404041B1A1B1F1B2419
:10184A00FF024832C2D5E830E70FB2D5E4C39BFBAA
:10185A00E49AFAE499F9E498F8EC30E717B2D51269
:10186A00188412281FE4C39BFBE49AFAE499F9E46A
:10187A0098F8800312281F30D50DE4C39FFFE49E19
:10188A00FEE49DFDE49CFC22788CE4F6D8FD9000F1
:10189A00007F007E10E4F0A3DFFCDEFA904FFFA386
:1018AA00E583C394204011FEAF829020000E0FE41E
:1018BA008002F0A3DFFCDEFA121920022BD82232B2
:1018CA003F241E16110E0B09070504030201F0C876
:1018DA00A7917767604638353230242220140001F8
:1018EA0001020203030404050506060707822D1CEC
:1018FA001613111010FFC07B7419C0E0C082C08398
:10190A00757B0AE5FF54CF4490F5FF22C07B74191A
:10191A00C0E0C082C083757B20E5FF54CF4490F5B8
:10192A00FF22C07B7419C0E0C082C083757B36E594
:10193A00FF54CF44A0F5FF22C07B7419C0E0C082D7
:10194A00C083757B4CE5FF54CF44B0F5FF2290A0CD
:10195A0022211690A746211690AD7F211690AFF648
:10196A00211690AFF9211690BFE8211690A2AE2158
:10197A001690A2A7211690C65F211690A26421167E
:10198A00909F1B211690D049211690D26221169061
:10199A00D26B211690D22A211690D7E9211690D817
:1019AA0004211690D8C6211690DFE7211690E01B75
:1019BA00211690E896211690E8AE211690E8B421F7
:1019CA001690C411211690DCCA2116909060211637
:1019DA0090E9C7211690DC7B211690E9DC2116904C
:1019EA00EA82211690ECB3211690A0DF211690A06E
:1019FA00F7211690A042211690C5EC211690810A73
:101A0A00211690ED322116908269211690EBA121C0
:101A1A001690C349211690A1B8211690A12D21161E
:101A2A0090ED6F211690EB1A211690B01C2116909A
:101A3A00B060211690EE09211690BED2211690D8D8
:101A4A00B9211690EC74211690EF4C211690EF9163
:101A5A00211690EFAF211690EFB6211690EFC12113
:101A6A001690F0172116909FAC211690DC6C211667
:101A7A0090D8FB211690DB62211690DB5821169034
:101A8A00B581211690F026211690CFE3211690F405
:101A9A0003211690C66A211690F432211690C89630
:101AAA00211690F435211690F438211690D5E721A5
:101ABA001690B0B8211690F4C2211690F50021169E
:101ACA0090F2E1211690A7A7211690F517211690FA
:101ADA00F53C211690F54A211690F570211690F5DD
:101AEA008D211690B338211690CB73211690F630BB
:101AFA0021169088A321429088E0214290898A2168
:101B0A004290945B2142908E3321429095922142D9
:101B1A009095C8214290962D21429083FE214290B1
:101B2A008074214290829021429080BB21429096FB
:101B3A00462142908CED214290967C214290967FDC
:101B4A0021429096AD21429097DA21429086252132
:101B5A004290980A214290981B214290992421424E
:101B6A00908BE22142909930214290842521429023
:101B7A00993321429080002142909A2721429089EC
:101B8A00342142908FCD2142909AEF2142909B328C
:101B9A00214290D822212C90D828212C90ACD121F6
:101BAA002C90D8BF212C90D2E5212C909F48212C33
:101BBA0090B53D212C90D8C0212C90B402212C90B4
:101BCA00C58D212C90C590212C90D8F0212C90BC49
:101BDA00EF212C90BD51212C90D8FC212C90D95367
:101BEA00212C90D93C212C90D95D212C90DA5921B5
:061BFA002C90CEAB212C63
:101C000090D9E8212C908FAD212C90DFE8212C90E9
:101C1000E043212C90D0E0212C90E094212C90E006
:101C2000F0212C90CED9212C90A272212C90C80AA0
:101C3000212C90B91A212C90CF1A212C90B132214D
:101C40002C90E1CC212C90B3AF212C90D2B5212C3B
:101C500090E245212C90B287212C90B302212C9048
:101C6000C581212C90C30F212C90983F212C909856
:101C700042212C90E256212C90A189212C909A99F6
:101C8000212C90BD94212C90D60B212C90C0C821E2
:101C90002C90E496212C90C725212C90C75E212CF6
:101CA00090C5CD212C90C272212C90A19A212C900C
:101CB000A1F4212C90B331212C90A269212C90E524
:101CC00021212C90E573212C90C31F212C90987C0E
:101CD000212C90D30A212C90D324212C90843C21B8
:101CE0002C908000212C908591212C9086A4212C71
:101CF0009087B7212C9088CA212C9089DD212C0057
:101D00004102B200410415060114004104140141CE
:101D1000041301C112011A00011700412C0900C16E
:101D20001BC115C10941272C00412792FF41278A79
:101D300000C108C107412793004127940041278B28
:101D400001C10B41272B00C10F013000C10CC10D97
:101D500041321300C132432FFB000000412FFA0033
:101D6000412FFE00433000000000432D170000000B
:101D7000412D1500412D1A0041254C0041254B01F4
:101D8000C1B6432B53000000412B560041321500D1
:101D9000C116C118412B8B00412B9400412B980098
:101DA000412B9700412B9300412B8E00422B8C003E
:101DB00000422B9A0000412A8328512A6200000029
:101DC000000000000000000000000000000044319E
:101DD0002100000000482A8C0000000000000001E3
:101DE000502A9400000000000000000000000000E5
:101DF00000000044203D0203040058218411010525
:101E0000FF2C83110105FF2C88110105FF2C8D117A
:101E10000105FF2C92582001110205FF2C831102AD
:101E200005FF2C88110205FF2C8D110205FF2C9255
:101E300043219C0400404920494C6966656C696EE9
:101E400065004921D64C6966656C696E650049215B
:101E5000DF4C6966656C696E65004921E84C69660E
:101E6000656C696E65004921F14C6966656C696E47
:101E700065004221775A014221795A01602E211AC8
:101E80000000000000000000000000000000000052
:101E90000000000000000000000000000000000042
:101EA0000000000000000000000000000000602EA4
:101EB00020620000000000000000000000000000A0
:101EC0000000000000000000000000000000000012
:101ED0000000000000000000000000000000000002
:101EE000602E2090000000000000000000000000B4
:101EF00000000000000000000000000000000000E2
:101F000000000000000000000000000000000000D1
:101F10000000602E20BE0000000000000000000055
:101F200000000000000000000000000000000000B1
:101F300000000000000000000000000000000000A1
:101F400000000000602E20EC0000000000000000F7
:101F50000000000000000000000000000000000081
:101F60000000000000000000000000000000000071
:101F70000000000000004321730000004121FC002C
:101F800041217B20412035004121A0004121C20098
:101F90004121C96356215D000000000100020000DC
:101FA000010101020100020003010302034421A117
:101FB000FF0001024121C4004121C8074121CFFF98
:101FC0004420450000000044205E00000000412045
:101FD00054004121FA004121CB004121A8004120B9
:101FE000440041215C05C13D42202000004121C642
:101FF000004121CD014120190045203803FF000197
:102000000245205504FF01020350214C000000004E
:102010000000000000000000000000004421D0008B
:1020200000000041201A014121B9034121D500429D
:10203000217C0000422036000041214A63412149B1
:10204000014121AB634121AA014120520141202AD3
:10205000034121C5004121A9FF4121CE004121D4E6
:102060000141202B064121CC064121CA00412034E8
:10207000004121760041202900412053014121489F
:10208000014821BAFFFF00000000000048202CFF9B
:10209000FF00000000000044205A00000000422120
:1020A000A50000412022004121A7FFE00C02608230
:1020B00001590154000100540262041844303E00EA
:1020C00000000041303C0041303D0041312F0041D3
:1020D00031300042312D00004130DEFF4130DD045F
:1020E000C1BE4130DB00609627E200000000000026
:1020F00000000000000000000000000000000000E0
:1021000000000000000000000000000000000000CF
:1021100000000000000000000000000000000000BF
:1021200000000000000000000000000000000000AF
:10213000000000000000000000000000000000009F
:10214000000000000000000000000000000000008F
:10215000000000000000000000000000000000007F
:10216000000000000000000000000000000000006F
:10217000000000000000000000000000000000005F
:1021800041304D004130490041304A1041304C004F
:1021900041304B00413048004229D30000603C29C7
:1021A000930101040002010700030108000401017A
:1021B00000050101000602000307010000080200FB
:1021C00000090200000A0163000B0101000C010A72
:1021D000000D0103000E0100000000000041253940
:1021E00000610B23DB000000FFFFFF808080FF0009
:1021F0000000FF000000FFFF2000FF500000FFFF75
:10220000FF00FF0060600000A0000060600000FFB1
:10221000FFE0FFFF5FFFFFFFFFFFFFFFFFFF88887B
:1022200088000000FFB7DDFF00888C0044FFCCCCA5
:10223000FF0000880000FFC8B4FF5511A42D00FF67
:10224000DDAAFF8800BB5500FFEE99FFBB00886642
:1022500000FFFFBBFFFF00888800EEFFBBBBFF0055
:10226000668800CCFF9977FF0022770099FF9900DC
:10227000FF00008800BBFFEE00FF99008844AAFF22
:10228000EE00FFCC00886699FFFF00FFFF00888802
:10229000CCEEFF00BBFF007799CCDDFF0066FF00AE
:1022A0003377CCCCFF0000FF000088CCBBFF55008B
:1022B000FF220088D1BBFF7700FF3A0088E8CCFFFF
:1022C0009900FF550088F0BBFFCC00FF660077FF48
:1022D000B3FFFF00FF770077000505050000FF78DA
:1022E0000000FF780078FF7878FFFF78FFFF007824
:1022F0004C23CF0A00030B000305000351000346E3
:1023000024E601FF000000005523B9030003060086
:10231000030700030400030500030800030900038A
:102320004C252D0C60030A000305FF0305FF034C39
:10233000253A0D0003520003030003520003603CE2
:1023400024F10300005300002500000000002B00D2
:10235000002E00005400000000000800005500009E
:1023600005000000000056000001FF0057000000BB
:1023700000004F000058000000FF00000000413046
:10238000540041305700413058004130590041302D
:102390005600413055004B2DDB00000000000000CE
:1023A00000000000604D287BFF000000FFFF0000E0
:1023B0000A0200FFFF000000FF00000A010100FF09
:1023C000000000FFFF000A040000FFFF000000FF04
:1023D000000A02010000FF00FFFFFFFF0A0B00FFE1
:1023E000FFFFFFFF00FF000A0A01FF00FF00FF00E0
:1023F00000000A0401602028CBFF000000FF7800E5
:1024000000FFFF000000FF000000FFFF000000FFD2
:1024100000FFFFFFFFFF00FF004128ED0041287A89
:10242000004128EB00412878004128CA004128ECEF
:10243000004128C900423066000042306800004573
:102440002A0C0000000000452A1100000000004591
:102450002A020000000000452A07000000000000DA
:10246000E709F608DFFA8046E709F208DFFA803E5E
:1024700088828C83E709F0A3DFFA8032E309F6084B
:10248000DFFA8078E309F208DFFA807088828C83B3
:10249000E309F0A3DFFA806489828A83E0A3F60867
:1024A000DFFA805889828A83E0A3F208DFFA804C41
:1024B00080D280FA80C680D4806980F28033801018
:1024C00080A680EA809A80A880DA80E280CA803381
:1024D00089828A83ECFAE493A3C8C582C8CCC583F9
:1024E000CCF0A3C8C582C8CCC583CCDFE9DEE780C9
:1024F0000D89828A83E493A3F608DFF9ECFAA9F048
:10250000EDFB2289828A83ECFAE0A3C8C582C8CC9D
:10251000C583CCF0A3C8C582C8CCC583CCDFEADEB6
:10252000E880DB89828A83E493A3F208DFF980CC18
:1025300088F0EF60010E4E60C388F0ED2402B40411
:102540000050B9F582EB2402B4040050AF232345B8
:1025500082239024B073BB010689828A83E02250D3
:1025600002E722BBFE02E32289828A83E49322BB34
:10257000010CE58229F582E5833AF583E0225006D5
:10258000E92582F8E622BBFE06E92582F8E222E58B
:102590008229F582E5833AF583E49322BB01098918
:1025A000828A83F8E028F022500327F722BBFE0539
:1025B000F8E328F3228A838982F8E4932822BB0176
:1025C0000FF8E58229F582E5833AF583E028F022C9
:1025D0005009C58229F8E58226F622BBFE09C5828C
:1025E00029F8E22582F222F8EA2583F583E9932887
:1025F00022BB010689828A83F0225002F722BBFEA9
:1026000001F322F8BB010DE58229F582E5833AF555
:1026100083E8F0225006E92582C8F622BBFE05E9D0
:102620002582C8F222EF8DF0A4A8F0CF8CF0A42868
:10263000CE8DF0A42EFE22BC000BBE0029EF8DF043
:1026400084FFADF022E4CCF875F008EF2FFFEE33F5
:10265000FEEC33FCEE9DEC984005FCEE9DFE0FD5A4
:10266000F0E9E4CEFD22EDF8F5F0EE8420D21CFE78
:10267000ADF075F008EF2FFFED33FD4007985006E1
:10268000D5F0F222C398FD0FD5F0EA22C5F0F8A3E9
:10269000E028F0C5F0F8E582158270021583E03875
:1026A000F022A3F8E0C5F025F0F0E5821582700273
:1026B0001583E0C838F0E822BB010A89828A83E0EA
:1026C000F5F0A3E022500687F009E71922BBFE07C8
:1026D000E3F5F009E3192289828A83E493F5F07423
:1026E000019322BB0110E58229F582E5833AF58347
:1026F000E0F5F0A3E0225009E92582F886F008E62B
:1027000022BBFE0AE92582F8E2F5F008E222E58321
:102710002AF583E993F5F0A3E99322BB010DC58265
:1027200029C582C5833AC58302268C5011C58229EA
:10273000F808E5F026F618F5F0E58236F622BBFE3D
:1027400011C58229F808E225F0F5F0F218E2358289
:10275000F222F8E58229F582E5832AF58374019354
:1027600025F0F5F0E4933822BB010A89828A83F0D0
:10277000E5F0A3F0225006F709A7F01922BBFE06E8
:10278000F3E5F009F31922EF2BFFEE3AFEED39FDE8
:10279000EC38FC22E88FF0A4CC8BF0A42CFCE98E62
:1027A000F0A42CFC8AF0EDA42CFCEA8EF0A4CDA8B9
:1027B000F08BF0A42DCC3825F0FDE98FF0A42CCDC2
:1027C00035F0FCEB8EF0A4FEA9F0EB8FF0A4CFC5A2
:1027D000F02ECD39FEE43CFCEAA42DCE35F0FDE42C
:1027E0003CFC2275F008758200EF2FFFEE33FECD22
:1027F00033CDCC33CCC58233C5829BED9AEC99E5C1
:102800008298400CF582EE9BFEED9AFDEC99FC0F50
:10281000D5F0D6E4CEFBE4CDFAE4CCF9A88222B818
:1028200000C1B90059BA002DEC8BF084CFCECDFC9D
:10283000E5F0CBF97818EF2FFFEE33FEED33FDEC2A
:1028400033FCEB33FB10D703994004EB99FB0FD813
:10285000E5E4F9FA227818EF2FFFEE33FEED33FDB1
:10286000EC33FCC933C910D7059BE99A4007EC9BB0
:10287000FCE99AF90FD8E0E4C9FAE4CCFB2275F040
:1028800010EF2FFFEE33FEED33FDCC33CCC833C851
:1028900010D7079BEC9AE899400AED9BFDEC9AFC57
:1028A000E899F80FD5F0DAE4CDFBE4CCFAE4C8F906
:1028B00022EF5BFFEE5AFEED59FDEC58FC22C3E41B
:1028C0009FFFE49EFEE49DFDE49CFC22EB9FF5F05F
:1028D000EA9E42F0E99D42F0E89C45F022E8600F54
:1028E000ECC313FCED13FDEE13FEEF13FFD8F12242
:1028F000E8600FEFC333FFEE33FEED33FDEC33FC46
:10290000D8F122BB010789828A830229455005E953
:10291000F8022B08BBFE05E9F8022B1422E0FCA309
:10292000E0FDA3E0FEA3E0FF22E493FC740193FD2D
:10293000740293FE740393FF22E0F8A3E0F9A3E08E
:10294000FAA3E0FB22ECF0A3EDF0A3EEF0A3EFF08E
:1029500022A8828583F0D083D08212296812296848
:10296000122968122968E473E493A3C583C5F0C5EE
:1029700083C8C582C8F0A3C583C5F0C583C8C58216
:10298000C822A42582F582E5F03583F58322E0FB99
:10299000A3E0FAA3E0F922F8E0FBA3A3E0F925F015
:1029A000F0E582158270021583E0FA38F022EBF030
:1029B000A3EAF0A3E9F022BB010789828A830229F6
:1029C0008E5005E9F8022B20BBFE05E9F8022B32F8
:1029D00089828A83022B44BB011A89828A83D0F0C0
:1029E000D0E0F8D0E0F9D0E0FAD0E0FBE8C0E0C0F9
:1029F000F00229AE5016E9F8D083D082D0E0F9D0A9
:102A0000E0FAD0E0FBC082C083022B29BBFE16E9AE
:102A1000F8D083D082D0E0F9D0E0FAD0E0FBC082D9
:102A2000C083022B3B22BB010DE58229F582E583A1
:102A30003AF58302298E5007E92582F8022B20BB44
:102A4000FE07E92582F8022B32E58229F582E5832B
:102A50003AF583022B44BB0120E58229F582E58308
:102A60003AF583D0F0D0E0F8D0E0F9D0E0FAD0E049
:102A7000FBE8C0E0C0F00229AE5018E92582F8D08A
:102A800083D082D0E0F9D0E0FAD0E0FBC082C083EE
:102A9000022B29BBFE18E92582F8D083D082D0E032
:102AA000F9D0E0FAD0E0FBC082C083022B3B22D0F9
:102AB00083D082F8E4937012740193700DA3A393F2
:102AC000F8740193F5828883E4737402936860EF6D
:102AD000A3A3A380DF8A838982E473EC8EF0A4CC65
:102AE000C5F0CCCDF8EFA4CEC5F02DFDE43CFCE85C
:102AF000A42EC8C5F03DFDE43CFCEFA4FFE5F028A2
:102B0000FEE43DFDE43CFC22ECF608EDF608EEF6B2
:102B100008EFF622ECF208EDF208EEF208EFF222EE
:102B2000E6FB08E6FA08E6F922EBF608EAF608E919
:102B3000F622E2FB08E2FA08E2F922EBF208EAF2F6
:102B400008E9F222E493FB740193FA740293F922E8
:102B5000901D00E47E0193700122A3FF543F30E5F5
:102B600009541FFEE493A360010ECF54E0B4E03A91
:102B7000EFFAEEF9E493FBA3E493FEA3E493FFA33F
:102B8000E493FDC083C082C001C002C006C007122A
:102B9000197BD007D006D002D001D082D083A30FFA
:102BA000EF70010EDADAD9D880A954C025E06010A0
:102BB0005005A3DFFD809CA3A3A3DFFDDEFB809374
:102BC000A3A3DFFD808D75818C75FF03759E0212B6
:102BD00019200230FB0218C8901D00E47E019360AA
:102BE000F4A3FF543F30E509541FFEE493A36001B2
:102BF0000ECF54E0B4E00EEFFAEEF9A3A3A3A3DAEC
:102C0000FDD9FB80D654C025E0604B5026E493A349
:102C1000F85407240CC8C333C4540F4420C883405D
:102C200004F456800146F6DFE480B0010204081087
:102C3000204080E493A3FAE493A3F8E493A3C8C5E7
:102C400082C8CAC583CAF0A3C8C582C8CAC583CA18
:102C5000DFE9DEE78085E493A3F8E493A34003F67D
:102C60008001F208DFF4022BDB5E86725A73263392
:102C7000708559257A5E86725A732670608E8559E2
:102C8000257A005E2685598E5E2685598E5E2685BC
:102C9000598E5E2685598E1C141C0A1BE71BEC1CE2
:102CA000051BE21C191C1E1BD81BDD00000000FFC9
:102CB000FFFFFF0000000019EE19F319F819FD1AC3
:102CC000021A071A111A20A1275A2D57617665207A
:102CD000342E32340019AD19B719BC19C119C619EF
:102CE000D01B4C1B511B561B5B1C4B1C501C551CFA
:102CF00087000000001A6B1A701A931A981C3C1C6B
:102D0000411C5F1C731C821C7D000000001CD21C37
:102D1000D71A481B921C371C8C1CBEE4F97D0CACE6
:102D20000109EC902CC993FC0FEFAA0670010E1458
:102D3000F5828A83ECF0DDE77F03228F828E83E4C5
:102D4000F0A37404B14E7418B14EA3E4F022F08FD6
:102D5000828E83A3A322B1B6121A751219DA121940
:102D60005D9002B3E064017F0060027F01121A2FC0
:102D7000121A341219B21254EC7A0279B612196C82
:102D8000123816FE4FFDA3E0FC4DFDA3E0FB4D60A5
:102D90000BEE5FFFEC5FFFEB5FF470031236A39066
:102DA000121CE0FF540324B6F582E43402F583E0FC
:102DB0006F9002B1F0227A2C79017F031255267AA6
:102DC0002C790A7F0812564E7A2C79077D027F09EA
:102DD000121B017B017A2C79057D027F0B121B01EE
:102DE000902C05E0FEA3E0FF4E6006BEFF1CBFFF77
:102DF00019902C0AE024FD60030470051256098026
:102E000009902C05E4F0A37440F0902C0AE024FD16
:102E10006003047008902C027403F08006902C026A
:102E20007402F0902C01E051AF2E45042E50142E68
:102E300058152E60172E76302E7E342E86362E8E26
:102E40003700002E6B75FF01535EEF855EFD8047F6
:102E500075FF01535FEF800E75FF01535FDF800642
:102E600075FF01535F7F855FC9802C75FF0153603B
:102E7000DF8560CA802175FF015361FE801675FFF2
:102E8000015361EF800E75FF015361BF800675FF2E
:102E90000153617F8561CB1238BB7F11F1F1E4FFF3
:102EA000123C6B123936902BFF7402F0902C03E029
:102EB000247F600A04701912562D740A8008123C8F
:102EC000CE12562D7458F0902C027403F01256094D
:102ED000902C04E0F46002E172902C07E0FEA3E085
:102EE000FF64104E7006902C04740EF0EF64204EB8
:102EF0007006902C04740FF0EF64404E7006902C16
:102F0000047410F0EF64804E7006902C047411F07D
:102F1000E4B5070AEEB40106902C047412F0E4B58F
:102F2000070AEEB40206902C047413F0E4B5070A05
:102F3000EEB40406902C047414F0E4B5070AEEB461
:102F40000806902C047415F0E4B5070AEEB41006D8
:102F5000902C047416F0E4B5070AEEB42006902C09
:102F6000047417F0E4B5070AEEB44006902C04741C
:102F700018F0F1F7123A35EF600512383780F51284
:102F800038AD1239D67F01F19B7F03F19B1238BB1C
:102F9000E4FF8051311D780811DDE4E5C820E2FB33
:102FA0008FEB2290306C3145F1F7123A35EF600526
:102FB00012383780F5123B38600990306C311D783B
:102FC00010F19890306CF19490306C311DE412390E
:102FD000C1903070EFF0F1E0903070E0FF22F19B93
:102FE0001238BBE4FFEFB4010443FE202253FEDF9E
:102FF00022EF4420F5FE2275FF02E5E430E106757C
:10300000E40675E4032275FF0275E40475E40175B6
:10301000E4022275FF0275E404E4F5E4229004332F
:1030200012548B90121DE054306006F1F25002C32E
:1030300022900433E0B4040BA3118590043374038D
:10304000F08025900433E06405701890121DE09024
:10305000043430E50611857F1F8004118DE4FFF1F3
:10306000F58005900434118D900433E09002B2F0A5
:10307000900435E0901222F01219A39002BDEEF0F8
:10308000A3EFF0D322E0FB7D017F018006E0FB7D12
:1030900001E4FFEB600875FF0153CDFD800675FF6D
:1030A0000143CD02ED600553FBDF800343FB20EFBE
:1030B000600775FF0243E1402275FF0253E1BF2222
:1030C00090121DE07B027D0130E5087F0111937FA6
:1030D0001F8006E4FF1193E4FFF1F57F0143FB102D
:1030E00075FF0243E640EF600D75FF02E5E120E762
:1030F000FB43FB0D800343FB0E80FE75FF0275E46E
:1031000004E4F5E4C21175FF02901215E0603BE59E
:10311000E6540364017033121A5C124B36401F9060
:103120001222E0600DE014F07008121892E4901280
:1031300015F0901215E0700221BE11C021BE1218C8
:1031400092D211E4901215F08074121892124E75FA
:103150009002B3EFF0901200E0B47A14901214E0F1
:10316000B49C0D9002B3E0FF64056004EFB4032E3D
:10317000E49002BCF09002BCE0FFC394405013E422
:103180002FF582E43412F583E4F09002BCE004F001
:1031900080E3901200747AF0901214749CF0121B69
:1031A000067A1279107F011255267A1279117F2141
:1031B00012564E7A1279127D017F22121B01121AC9
:1031C00061124E75121A579002B3EFF01219E41201
:1031D0001A529002B3E0FFB40602800C3011047F53
:1031E0000280059002B3E0FF121BA1EF24FFB3920F
:1031F0003275FF0253E6BF9002B3E064016005E45C
:10320000901215F0123ED5121A66122D5690121514
:10321000E0700F20320C121BA67B017A27799612E0
:103220001A1690121DE030E00280033011047F0175
:103230009100D2AF30327912195812198F121BAB8C
:10324000121AFC40F29002B2E06041121A7FEF7055
:10325000051255564036E51470FCE51520E502913F
:1032600017121967EF70FA124E3A5005124E265097
:10327000057F01123C6B9002B2E0B40204E4FF80CF
:10328000099002B2E0B403047F0111DD121A7AE55D
:103290001530E1A3124D4E4002E4F0E51520E5069D
:1032A000716F7D0171819002BC717212561380871B
:1032B000123E65F1FD5002D1A39002B2E0605D9034
:1032C000272CE07057121A7FEF7005125556404CAC
:1032D000E51470FCE51520E50990121DE020E002E0
:1032E0009117121967EF70FA124E3A5005124E26D6
:1032F00050057F01123C6B9002B2E0B40203E480FF
:10330000189002B2E0B403047F01800E9002B2E094
:10331000B405099012157401F0FF11DD121958124D
:10332000198F121BB09002B0E07005121A7A801546
:10333000123EA1FF9002B0E0FEC3EF9EC394064090
:1033400002E4F0D2AD121807E51530E11A124D4E25
:103350004002E4F0E51520E506716F7D0171819072
:1033600002BC7172125613121A43123EC041B09041
:1033700002B4E075F0AA9002BF122982AF82AE8338
:1033800022900439EEF0A3EFF0E514706EF1E250F4
:1033900004C22E913F900439E0FEA3E08E11F51295
:1033A000AE11AF127DAA124CF2E4F5FF75D901F50A
:1033B00010E5155421602CE51530E505E4FF1249B0
:1033C000A5E490043BF090043BE004F0124655EF76
:1033D000600990043BE0C3941040EB7F02121B9CF9
:1033E0005315DE900413E07F00B403027F011248FE
:1033F00023D22E913FD2EBA21092ED22EFF07F016B
:10340000EF6008716FE4FD71818009121A849117D1
:10341000E433FF227F0122E5147022F1E25004C25E
:103420002E913F124BBD124BC4E5D120E0FB43155A
:10343000205315FEE4F510A21092EDD322C3229082
:103440003205E5F4F0E0547FF5F47F827E00F1135D
:10345000F1465005E5FC20E6F7302E08903205E0F5
:103460004480F5F4F10FF1465005E5FC20E6F775D0
:10347000FF01E5D520E702C322E5F4D330E601C31E
:1034800022900427EEF0A312553FC2EBE514600230
:10349000C124E51530E202C322F1EA5004C22E91A4
:1034A0003F124BC4E5D120E0FBE4F510C2119004BB
:1034B00028E05407C39403E494005022900430E0C1
:1034C000FF90042CE02FFFE433FED3EF9440EE6432
:1034D0008094804009431504A21092EDD3229004F9
:1034E0002D12298ECFE9CF8A118F12900430E0F58A
:1034F00016AE11124F5CD1738B1C8A1D891E90046D
:103500002CE0F51F900427E0FCA3E0FD5460602F41
:10351000900431E0FF124C25D12FFB7A0090042556
:10352000E0FEA3E0FF7C007D17122625EF2BFFEACB
:103530003EFEEF2414FBE43EFA7D027F01C10B90B6
:103540000427A3E05407900414F0751408D17312F3
:103550004BD090042CE0FFAD16124C76900414E092
:103560006403702D7B01FDD12CD188D179500ED10F
:1035700073E92407F9E43AFA740112259CE4F5FF93
:10358000124CAAD12F2428FBE433FA7D03E4FF80F8
:103590007A900414E06402701FFB7D01D12CD18865
:1035A000D1794003125501124CBDD12F2414FBE4F4
:1035B00033FA7D027F018053E4FB7D01D12CD18859
:1035C000D1794003125501E4F5FFD18044104E7FBC
:1035D0000560027F0AEF547FFFE5D254804FF5D299
:1035E000E4F5FF43D280D12FFD7C00D18044104E02
:1035F0007E0060047F0A80027F05EF25E0FFEE3346
:10360000FEEF2DFBEE3CFA7D017F01124D6BD18068
:10361000FF123FD54006A21092EDC322A21092EDF8
:10362000D2EBD322A21092EDD2EBC322FFD13F9076
:10363000042912298EE92407F9E43AFA022556E40E
:10364000F5FF75D102E5D120E0FBE4F5FFF5D1EF00
:103650006008E4F5FF43D2808006E4F5FF53D27F93
:10366000EB6006E4F5FF43D104ED6006E4F5FF43AB
:10367000D1082290042902298E6480F8748098224F
:10368000900427E0FEA3E022FF900430E0FD9004C8
:103690002CE02DFDE433FCED2401FDE43CFCD3EFF4
:1036A0009DEC22E4FF9100EF60437B017A0279B642
:1036B000D1EE9002B6E0C394C040EF7B017A02796C
:1036C000B8D1EE1238165FFFA3E05FFFA3E05FF40E
:1036D00060E990121DE030E0047F019100E4901257
:1036E0001CF07B017A0279B6E0FD12197122900478
:1036F0003F1229AEC226E4FF9100BF010B90043FA8
:1037000012298E12432492267F019100A226227F45
:10371000E87E03F117803F9030E91256367A30790F
:10372000EB1247B050149030EBE0FEA3E0FF903076
:10373000EAE09F9030E9E09E400B9030E9E0FEA384
:10374000E0FF1247282275FF03E591C330E701D35C
:10375000227E0012472875FF03439180229030F9A2
:10376000EFF0A3124FC5E9F075FF01124BF9EF64BA
:10377000016002C322E5F430E602C3227FE87E0343
:10378000124728F1561253CB400122C22E913F908E
:1037900030F9E0FF1249A553F4DFD22E913F7F7834
:1037A0007E0012476175FF0153E4BFE5E430E7FB9B
:1037B000124CB37F8A12561B30E606124FCCE480BF
:1037C0000875FF01124FCCE5D91225F175FF0143B1
:1037D000E440124C91400343F4201253CB400122A9
:1037E000D322C2EBA2ED9210C2EDE5F4C330E701A3
:1037F000D322A2112275FF028FE32280F890121CBF
:10380000E070111238164FFFA3E04FFFA3E04F7096
:1038100003D38001C3229002B6E0FFA3E02290020E
:10382000B1E064AA2411FFF022AE07111EEE04FEDF
:10383000EF8EF084AFF022E51530E20FE51520E5BC
:103840000AE51530E0057F01123400229030711234
:10385000294511A7122FA3903075E06F6036122F03
:10386000F75135EF6004113780F711AD31D6902B49
:10387000FFE0FF7141600711A77810122F98903078
:1038800071122F9411A7E4122F9B903075E0FF1254
:103890002FDED322C322FEAF01E4FDAB05E4FCFD25
:1038A000903075EBF080A590307102291D7F0112D8
:1038B0002FE5D22731D67F06122F9BB193EF70FBF5
:1038C000902C03E0F4600A9032017406F09163706A
:1038D000FC902C01E0122AAF38F40438FC143901B2
:1038E00015390617391630391B3439203639253742
:1038F0000000390E436210856280802F4363108080
:10390000084363208003436380856390801D436484
:10391000208564A08015436501800D4365108008F3
:1039200043654080034365808565B0903201740C27
:10393000F0916370FC227F01122FE5903202740136
:10394000F0903202E0603731D67F0531C19032020B
:10395000EFF011BB31BD902BFCEFF031C4902BFD8B
:10396000EFF011BB903202E0540191A560D3A3E0C7
:10397000F460CEEF30E7CAE4903202F080C331D673
:103980007F9F31C1902BFEEFF031C4902C03EFF0FC
:1039900031C4902C04EFF0122FE0902BFCE0F46087
:1039A0001BA3E0F46016902C03E0FD541F240FA32A
:1039B000F0EDC41354074480902C03F02231D67FDD
:1039C000D7122F9B7FFF122F9BE5C820E2FBAFEBA6
:1039D000227F01122FE5902C01E0122AAF39F90461
:1039E0003A01143A06153A0B173A1B303A20343A8A
:1039F00025363A2A3700003A135362EF85628080F9
:103A00002F5363EF80085363DF800353637F856325
:103A100090801D5364DF8564A080155365FE800D82
:103A20005365EF80085365BF800353657F8565B09C
:103A30007F0CDFFE227F01122FE530271631D67F63
:103A40000531C1903204EFF011BB903204E020E068
:103A500002C22730271E31BD902BFCEFF031C490FD
:103A60002BFDEF91A5600BA3E0F46006EF30E702B9
:103A7000C22711BBE4FF122FE5A227E433FF2290F7
:103A80002E4A122945902E4E1229AE122FF751358B
:103A9000EF6004113780F711AD31D6902BFFE0FFB6
:103AA0007141600B902E4A12291D7810122F9890A8
:103AB0002E4A122F94902E4A12291DE4801B902E1C
:103AC0005191B76019902E4E12298EEA494B60072A
:103AD000902E4E91AD8001E4FF122F9B80E011BB30
:103AE000E4FF022FE5902E53122945902E571229FC
:103AF000AE122FF75135EF6004113780F77138603F
:103B00000B902E5312291D7810122F98902E5312BD
:103B10002F94902E5312291DE4122F9B902E5A9110
:103B2000B7600E31C4902E57919E902E58B1998057
:103B3000EB11BBE4FF022FE57F01122FE531D67FA9
:103B400003122F9B902C02E0640222902D57122921
:103B500045902D5B1229AE902D5B12298E902D5E23
:103B6000B1DA902D5712291DB1115002810C902C01
:103B700006E024FFFF902C05E034FFFEE4FCFD90FE
:103B80002D571229391228B1902D60B1A0603291C1
:103B90000EC3902C06E09FFF902C05E09EFE902D1A
:103BA00060F0A3EFF0902D5EB1E75006A3ECF0A318
:103BB000EDF091174A6004910E80447E007F0080F2
:103BC0003E902D5EE0FEA3E0FF4E603E902C05E0AF
:103BD000FCA3E0FDD3EF9DEE9C400A902D60ECF03D
:103BE000A3EDF0800D902D5EE0FFA3E0A3CFF0A346
:103BF000EFF091174A6004910E80047E007F0090E0
:103C00002D5CEE8FF012268C80B7D322C322902D2C
:103C100060E0FEA3E0FF22902D5B12298E902D60C4
:103C2000E0FFA3E0902E51CFF0A3EFF0902D5712BC
:103C3000291D517F902D60E0FEA3E0FFC3902D5F12
:103C4000E09FF0902D5EE09EF0902D57122939E410
:103C5000FCFD122787902D57122945902D5B1229C4
:103C60008EE922903201E014F0E022903203EFF06E
:103C7000902C0AE06402702431D1903203E07FABD3
:103C800060027FB9122F9B11BB903203E0902C0988
:103C9000F070047F1EDFFEE4FF122FE522FF1229E1
:103CA0008EEF0225F1F0902BFCE0FFF422E475F09A
:103CB0000112299702255674FFF5F01226A245F04D
:103CC00022122FF75135EF6004113780F722902B25
:103CD000FCE020E01631D17F3D122F9B7F2A122F6E
:103CE0009B7F80122F9B7FA6122FDE22FEAF017BCF
:103CF000007A007982902FDB7404F0902FD8B1A75E
:103D0000C007902FD812298E902FDBB1F1D0074138
:103D1000E5902A16122945902A1A1229AEE4902A13
:103D20003DF0D3902A1EE0941E902A1DE09400409E
:103D300001227B017A2A791F902A1DE0FFA3E090DF
:103D40002E5ACFF0A3EFF0902A1612291D51E590BC
:103D50002A1A12298EE94A600F902A3DE0F58275F1
:103D6000830012256FFF80027F00902A3DE0241F10
:103D7000F582E4342AF583E06F6002C322902A3D85
:103D8000E004FFF0D3902A1EE09F902A1DE09400EB
:103D900050BD22E5C85404FF22E475F00102268CD0
:103DA000EEF0A3EFF04E221229AEE4FCFD22902F9C
:103DB00068B1A7C007902F6812298E902F6BB1FCB5
:103DC000D007614B902F6FB1A7C007902F6F1229BA
:103DD0008E902F72B1DAD007A111E0FFA3E0902AF4
:103DE0001DCFF0A3EFF022E0FCA3E0FDD39FEC9EFB
:103DF00022E0FF902E5AE4F0A3EFF022E0FFA3E0D0
:103E0000902D5ECFF0A3EFF022C0E0C0F0C083C0E1
:103E100082C0D075D008C0FF75FF02E58E30E4285F
:103E200075FF02E58E54EF4410F58E900000E0041B
:103E3000F0E57430E0020531E574700A757409909C
:103E40002942B19A8002157475FF02E58530E408B5
:103E500075FF024385100575D0FFD0D0D082D08386
:103E6000D0F0D0E03230250C90272CE07006FF1205
:103E700019E9C225D1790219DF301124D1A3FF90AD
:103E80000424E0FEEFC39E400AEF9ED3940240104C
:103E9000C21122900424E0F42FD394014002C211F5
:103EA00022C2AD902942E0A3E0229002BAE0FCA336
:103EB000E04C700A9002BAEEF0A3EFF0D322C322D6
:103EC0009002BAE0FEA3E0FF4E6009CAEECAC9EF55
:103ED000C9122AD52275FF02D2ADD2BD75FF027577
:103EE0008E7175740975FF02E58E546F4480F58EEE
:103EF000221237EA5004F1024003301103D380014B
:103F0000C322E5F754E024FF22AF14EFC36001D3CE
:103F100022EFC3940E5005900415EFF022E51754DC
:103F20000FFF22E517C394F0501F5317F0F14CFE1A
:103F3000740FC39F4005EE940E400543170D800398
:103F4000EF4217E517540FFF227F0022E517C454F4
:103F50000FFEEF9018E8932E22F14CFFC3940E4011
:103F6000027F0DEF9018CA93FF22EF30E303AF13E7
:103F700022AD1B201204EE30E00BE517C394F05085
:103F800020F1A48018E51A6006FDE4F51A8012E518
:103F900017C394F0500BE517540FFF6004F159ADAF
:103FA00007AF0522900415E0FDFFC3740EF1CEEFBC
:103FB000C4F8540FC868FFEEC454F048FEE5175427
:103FC000F0C39FEE1236797F005002AF05229FFFAB
:103FD000E49400FE224315015315DFF16A124022DA
:103FE0004004E4F514225315FB124825D322E517AB
:103FF00054F0C4540F2FFFC3941040027F0FEF9072
:1040000018D893FF227E10EE60091EEE9018D89308
:10401000B507F4EEC3940E40027E0DEE9018CA93DD
:10402000FF22900437EFF0900414E024FD601104A7
:10403000700711687404F0801211687408F0800B26
:10404000E4900438F09004367402F07F01121B9C57
:10405000900438E0FF900436E0FDA3E0FBE4902FED
:1040600077F0117250EAD3229004387401F0900472
:104070003622902F7412548B902F7A7401F0C22D37
:1040800012370F1237465005E5FC20E6F6124BF9C1
:10409000BF0108E4F5FC75FC408008124BF9BF0233
:1040A00002D322F1F3902F75E0FF12535175FF01F7
:1040B00053D5DF53FAFB902F74E0FF1249A5902FE0
:1040C00075E0902F74B4080CE0B1001255B624527C
:1040D00071198003E0317DB11B902F76E0FFF1ED87
:1040E00075FF0175FF03759B0412370F75FC42E5E0
:1040F000FC20E10512374640F3902F77E0F075FF82
:1041000003E59B20E70512374640F3E59B20E70DCA
:1041100075FF03759B1F124BDCD22D804DB114121D
:104120004F95902F75E0FD90120FE05D701C902F61
:1041300074E0FFB1141251BD90120FE0FF902F7583
:10414000E0FEEF4E90120FF051D8F1457B017A2F2F
:104150007978F1B0500FC3902F79E09420902F78A8
:10416000E0940340E7B114124FD8D14C302D020136
:1041700078902F7AE0B40103D38001C32225E02593
:10418000E02401F582E43412F583E0FCA3E0FDA312
:10419000E0FEA3E0FF22902AFC12294575FF0243AE
:1041A000E180124BDCF1C6902B11122951002DC673
:1041B000C0E4F5FFF5A490120EF0A3F0902B0C7460
:1041C00002F012567CFFF595EF14601314601C2466
:1041D000027027902AFC318AB10E902B088016902D
:1041E0002B00318AB10E902B09800A902B04318A62
:1041F000B10E902B0AE0902B15F01251B0902B15B8
:10420000E0700FF5FFF59675FF0175D70975F41885
:10421000805690120EE004F0902B0CE0124C999016
:104220002B11318A902B0D12559AC31228CC5009AC
:10423000902B0D318AA3122945902B15E0FF1250C7
:1042400031902B0BE0FFA3E0FDA22C922A12515ECD
:10425000A3318A903077122945902B0CE0FF916EA4
:10426000902B0CE0317DB11B125624600221C274E8
:1042700002F012567CF595E5F454077017902B1157
:1042800051FA78011228DD902B0C91FE122945EB92
:10429000317DB11B12562470D975FF0375958012BC
:1042A0004C91400343F420A22C922B125090902B5F
:1042B000111255B62420FFEE344E711CE4FB7A0433
:1042C000F9F8710A78011228DDC229B157E4F5FF27
:1042D000E5BD54F84404F5BD9012137401F07E124C
:1042E0007F01E4FDEF2DF582E43EF583E0FC9012C2
:1042F00013E02CF00DEDB412EB22FF7E04FDFCE088
:10430000F8A3E0F9A3E0FAA3E0FB122794E47B7D95
:10431000FAF9F812281FEF2401FFE43EFEE43DFD08
:10432000E43CFC22902D62124FC5E9F0902D6812FA
:10433000295100000001902D6C7401F0F5FFE5D5C6
:1043400054C070051237EA5002C322E4F5FF5396B9
:104350007F75FF0175D504D14475FF0143D508E48D
:10436000F5FF5394FBF5FF53847FF5FF7598FF909D
:104370002D66E5F4F075F49C75FF01A3E5E4F07596
:10438000E4257B017A2D796C124F95902D6CE064B9
:10439000016002814CF5FF902D657414F0902D683A
:1043A000318A78011228F0902D68122945E5A7304E
:1043B000E1FB43A702902D68318AE5A730E005E4D0
:1043C0007B018002E4FBFAF9F8EF4BFFEE4AFEEDC9
:1043D00049FDEC48FC902D68122945902D65E014AC
:1043E000F070BA902D68318A78101228DD7B6D7AD2
:1043F0004E79C67841122794EF2439FFEE3430719C
:104400001CE4FBFA7901F812281FEE547FFEE4FD4C
:10441000FC125344902D68318AEB6FFFEA6EFEE880
:10442000CDEFCDCCEECCECFF902D62124FCFEF1242
:1044300025F1902D62124FCF900001ED12260390CE
:10444000120FE030E606E4F5FF75968075FF01E493
:10445000F5D5902D66E0F5F475FF01A3E0F5E412C3
:10446000507F902D6CE0B40103D38001C3229030C3
:1044700076EFF0E4A351FA78011228DD90307691BE
:10448000FE122945901210E0FF64806070EFC39423
:104490007F5037EBB100C083C082318AEEC0E0EFBD
:1044A000C0E0901210E075F004A4AEF0FBCAEECAB2
:1044B000EA3395E0F9F8D0E0FFD0E0FEC3EF9BFFD0
:1044C000EE9AFEED99FDEC98802B903076E0B100ED
:1044D000C083C08212559A901210E0F40475F00463
:1044E000A4FFAEF0EE3395E0FDFCEB2FFFEA3EFEBD
:1044F000E93DFDE83CFCD082D08312294522E0FB57
:1045000025E025E02401F582E43412F58322902B86
:104510000D0229457B017A2F797A229030ED1229FC
:104520004575FF019030EDA3E0FDA3A3E4FFFEE499
:10453000FC78101228DD8FE19030EDA3A3E0FEA3FC
:10454000E4FFE4FDFC78081228DD8FE29030EDA353
:10455000A3A3E0FF8FE322902B16122945E4F5FF79
:1045600075BB0575BB8575FF0175D502202904D182
:1045700044F14575FF0143D520302902C11DE4F502
:10458000FF538EF7438E077D04E4F5FF8DBCF5FFE6
:1045900043B102E5B130E2FBE4F5FFAFDFEFFEAC83
:1045A000DEECFBEBFFED25E02414F582E4342B1266
:1045B0005646E4F5FFF5FF53B1FD0DEDB40CCA907E
:1045C0002B16318A78091228DDA3EEF0A3EFF0E470
:1045D000FDED25E0241EF582E4342BF583E0C313C2
:1045E000FAA3E013FBD137E0C313FEA3E0132BFFC4
:1045F000EE3AFED1371255C8240490120DF0EDC3E7
:1046000094075019CFEDCF0DEFD138E0FEA3E0FFB6
:10461000C3902B1BE09F902B1AE09E50B4E4F5FF53
:10462000758EC8F5FF90120DE0F5BCE4F5FF75BB83
:104630008075FF01F5D522ED25E0241CF582E434D8
:104640002BF583227F3FFEF12812375675FF03E5D5
:104650009120E7FB22E49030F1F0A304F0E49030E5
:10466000F4F0E5FA30E1FB75FF01E5D530E7037FB3
:104670000022E4F5FF75E508F1F3E5D530E61A759B
:10468000FF019030F3E5DAF0E4F5DA75FF01E5D6E5
:1046900030E3FB9030F47401F075FF03759B0475F3
:1046A000FC4175FF03E59B30E7FBE4FB75FF038BE3
:1046B00095EB317DB11B0BEBB403F175FF037595E1
:1046C00080E4F5FF758EC8F14575FF0153D5FBF108
:1046D000E67F14123751D14C75FF0143D504903059
:1046E000F4E07009F1E67FC8123751D14C7B017AB2
:1046F0003079F2124FD89030F2E09030F17006E04D
:104700004404FF8002E0FF9030F1EFF090120EE0E1
:10471000B4010675FF0143D81075FF019030F3E036
:10472000F5DA9030F1E0FF2275FF03D3EF9402EE4B
:104730009400400874FE2FFF74FF3EFEEFF592EEEA
:10474000540FF59122E4F5FF75C2E17F1E12561B4E
:1047500030E707E4F5FF75C2A122E4F5FF75C281D9
:1047600022CDEFCDCCEECCF1A4AB94EF4B1256841E
:10477000CBEFCBFAE59130E71DF1A7A994E9F582DB
:10478000EF4582FFEB2DF582EA3CF583C3EF95827E
:10479000E5F0958340DEE59120E708CEECCECFED45
:1047A000CFD1472275FF03AF93EF75F010A4FF221E
:1047B000F1A4AD94EF4D1256848FF0122768E59165
:1047C000C330E701D3221255FF53DB7F75FF01751C
:1047D000D5027F14123751D14C1255FF43DB80753F
:1047E000FF01E4F5D52275FF03E4F5912275FF0181
:1047F0008FDA2275FF0153D8EF22C22E12343F12F6
:104800004BC4E5D120E0FBE4F5FF75D9019004131A
:10481000E07F00B403027F011123D22E12343FE463
:10482000F5102231A543FA04E4F5FF53D1FD43D13D
:104830000122C0E0C0F0C083C082C0D075D008C0E3
:10484000FF71F98F18E51864027051E51424F860BF
:1048500041240760022184900425918A45F0702844
:10486000AB1CAA1DA91E71D0AD16AF1F9176E4FB3B
:104870007D01FF12363F75FF0091AA43FA0475FFD0
:1048800000112B751408218443FA0475FF00112BC5
:104890002184C2EB7514004315042184E5186401DA
:1048A00060022184918340022184E510702B8512DF
:1048B00082851183E090044BF0E0FF64556004EFC3
:1048C000B4540BD211123EA3900424F0215475105D
:1048D0000275FF0075D9082184E510640270543117
:1048E00099E090044BF0B11391C9900413EFF0904C
:1048F000044BE0FFD394094025900413E0D39402C5
:10490000400CEFD394AA7F0040027F01800D9004F9
:104910004BE0D394407F0040027F01EF600431916F
:10492000803290044BE0FFF51675FF008FD97510AB
:10493000038051E5106403704B319175FF009004C2
:1049400013E0C39403E5D350055402FF80035401E0
:10495000FFEF60051247FA802BC22E12343F75FF1D
:104960000071C7E5D120E0FBC2EB431502751000D2
:10497000900413E0B4030715163199E516F0900280
:10498000B5E516F0D0FFD0D0D082D083D0F0D0E003
:1049900032301104C21131C022E5122407F582E43D
:1049A0003511F5832275FF01E5D530E602C322E417
:1049B000F5FF439A80EF9199E4F5FF539A7FD32254
:1049C000C219E4903140F0C21AA3F0A3F075FF01C0
:1049D000E5D520E702C322C22F5184201902417578
:1049E00053F4DF903140E0FF31A575FF0143D8104B
:1049F000301A0543F440800353F4BFE4F5FF53F548
:104A0000F0903141E0FAA3E0FBEA42F5EBF5F6D293
:104A10002F51847FC8123751E4F5FFE59320E60556
:104A200012374640F3301A5AE5F430E3047D28800B
:104A300010E5F430E2047D288007E5F430E1027DE2
:104A4000281247E67F2812375112374640FB7F78FD
:104A5000123751123746502A719150F771B8EFC38F
:104A60009D50F0719150ECE5F720E5E7C22F51849D
:104A70001247E680DE53F4BF9191400643F42012C2
:104A800047F3D322AFF4EF547FF5F4302F05EF4412
:104A900080F5F475FF01E5D520E702C322E5F4D3E4
:104AA00030E601C322900445EFF0C22F5184D219A1
:104AB000900445E0903140F0D21AA3E4F0A3740DC5
:104AC000F031CDE4900446F01237EA5038900446B5
:104AD000E07032E5F754C060EF711B712EBF5511C5
:104AE000712E90121CE06F90044670147402F080D6
:104AF000D7900446E0B454057433F080CB9004465C
:104B00007401F080C3900446E0B40207C22E123450
:104B10003F800031C0900446E0FF22E5F720E00826
:104B2000E5F754C070F5FF2243F701AFF922711B7E
:104B3000900446EFF0225315FEE51530E5047F01A1
:104B400031A5124655EF70FA7F02121B9C7F01516E
:104B5000A590044CEFF0BF0202801390044CE0B427
:104B60003311E4F07F0151A5BF020D90044C740194
:104B7000F08005E490044CF090044CE0700C123787
:104B8000EA5005C22E12343F71BD90044CE024FF60
:104B90002275FF01E5E43322E4FFE5F754C060022B
:104BA000801675FF01E5D530E30D719150F471B8B1
:104BB000EF60EF719150EB2291B3AFD92271DC7F9E
:104BC00008021B9CE4F5FFE5D154FE4402F5D12216
:104BD000E4F5FFE991A1EA540F42D622E5FA30E16B
:104BE000FB75FC8075FF0153D5EFE4F5FC75FC40C7
:104BF0001247E6E5FC20E6FB227FFA123751E5FC7E
:104C000030E60512374640F6E5FC30E6037F032226
:104C100075FF01E5D530E6037F0222E5D57F003040
:104C2000E7027F012290043CEFF0A3ECF0A3EDF04B
:104C3000751401E4FBFDFF12363F7B017A047916FF
:104C400071D0E4FD7F02917691BD9004167455F009
:104C500090043CE0900417F09004147402F0900467
:104C60003EE090042530E507E4F0A3743CF022E434
:104C7000F0A374F0F022E4F5FF8FD4F5FFCFEDCF71
:104C80008FD522E5F754C024FF2274FFF5F00226E9
:104C90008C90120EE0D394012233333354F8F5F4A0
:104CA00022F5D7E4F5FF53D6F022E5D25480441420
:104CB000F5D22275FF01E4F5EA75EAFF22E4F5FF7B
:104CC000E5D25480440AF5D222EF24FE600C24FE83
:104CD000600580007F01227F02227F0322E51520EC
:104CE000E50CC22E12343F71C4E5D120E0FBE4F59F
:104CF0001022E4F5FF75D102E5D120E0FBE4F5D107
:104D0000F5FFEF91A1EE540F42D6E4F5FFCFEDCFC2
:104D10008FD422E5F75406FFBF06037F0822E5F78C
:104D20005406FFBF04037F0422E5F75406FFBF02C9
:104D3000037F02227F0122E4F514023417C2AFEF91
:104D40004215D2AF22C2AFEFF45215D2AF227F028A
:104D5000B1459002B4E09002BCF09002B404F0C3FC
:104D6000940222900425E0A3E0FF22900442EFF099
:104D7000ED24FE60191460262402703BEB2402FF30
:104D8000E43AFE7C007D501226257D60801EB1DF56
:104D9000C333CE33CED8F9FF7C007D28800EB1DF3F
:104DA000C333CE33CED8F9FF7C007D641226379012
:104DB0000443EEF0A3EFF0900442E0B1EAC083C0F8
:104DC00082122939900444E02401FF900443E03426
:104DD00000FEE4FCFD122787D082D083022945EB38
:104DE0002401FFE43AFEEF78032225E025E02418B1
:104DF000F582E43404F58322EFB1EA12291D022979
:104E000003E4900418D118E490041CD11FE4FFFEC1
:104E1000FDFC900420022945FFFEFDFC022945FF10
:104E2000FEFDFC0229457F017E009017FCE4935EA5
:104E3000FE7401935F4E24FFB3229000017401932E
:104E4000B40007E493B41802C322D322EF7011ED2B
:104E5000600775FF0143AE012275FF0153AEFE22CC
:104E6000EFB40110ED600775FF0143AE022275FF3C
:104E70000153AEFD2275FF02E5E630E2037F032217
:104E8000E5E630E3037F0022E5E630E1037F04221C
:104E9000E5E67F0530E0027F0122EF600775FF0243
:104EA00053E6BF2275FF0243E64022EF14600F1461
:104EB0006014240270188B8075FF018DFD228B9089
:104EC00075FF018DC9228BA075FF018DCA22AF032A
:104ED0008FB075FF01AF058FCB22902F601229AEE6
:104EE000EF1460111460182402701EF114E580F1B3
:104EF0001AE5FD801CF114E590F11AE5C98012F164
:104F000014E5A0F11AE5CA8008F114E5B0F11AE53C
:104F1000CB0225F1902F6302298E1225F175FF0136
:104F2000902F6002298EE4F5FFAF9122E4F5FFAFE8
:104F30009222902BFEE01225F1902C03E0900001CC
:104F4000122603902C04E09000020226037E007FCC
:104F500004E4FCFD022FA3E4FF022FE5E4F5FFEFDC
:104F6000F5D8E4F5FF53D60FEE540FC4F854F0C84B
:104F7000E4C4540F4842D622E4F5FF8FD422E4F56E
:104F8000FFE5D1540133333354F8FFE4F5FFE5D3A3
:104F900054074FFF2290313DF1C5E9F07F017C12AB
:104FA0007D01E4FEED2EF582E43CF583E02FFF0E5B
:104FB000EEB412F0901213E06F600990313DF1CF22
:104FC000E41225F122EBF0A3EAF0A3229030FAE0FC
:104FD000FBA3E0FAA3E0F922C22875FF03759B1F2B
:104FE00075FF0390120FE0FF20E71BE59A540FC3F3
:104FF00094024012EF4480F0E4F5FF75C2A143FC37
:105000000475FF03D228E5FC30E609E59A540FC386
:10501000940540CCE5FC30E611E41225F175FC80E6
:10502000F5FC75FC40E5FC20E6FB3028031242D875
:1050300022EF30E00E43F401E4F5FF43A404F5FF52
:10504000759624EF30E10E43F401E4F5FF43A40824
:10505000F5FF759624EF30E20943F402E4F5FF759D
:10506000961EEF30E30943F404E4F5FF75961075DE
:10507000FF01EF5403600475D7122275D72D22E487
:10508000F5FF7584E6F5FF439404F5FF7598142247
:10509000E4F5FF75933F75FF03759A40117FE4F5C2
:1050A000FF759C93F5FF75A1A3F5FF758531F5FF9D
:1050B000758628E5FA54304480F5FA75FF0175E7E6
:1050C0004A75FF0275DF4975FF0143D30475FF017F
:1050D00053D367E4F5FF53E6BF75FF0175D825F597
:1050E000FF75B503F5FF75B215F5FF75BA02F5FF4B
:1050F00075AFB3F5FF75CD0AF5FF75CB08F5FF75F4
:10510000CA12F5FF75BF0EF5FF75CC96F5FFF5BD1C
:10511000F5FF75C281F5FF75AEE1F5FF75DA55F55E
:10512000FF75F580F5FF75E903F5FF75E933F5FFC8
:1051300075972A75FF01759B42759CA4759D29750D
:105140009E48759F2475A11275A312759AF8202B9D
:105150000CF5FF43968090120FE04440F022CCEF14
:10516000CCCFEDCF74017E00C8EFC8088005C333F3
:10517000CE33CED8F9FFCDECCDEF5D601B302A18D1
:1051800075FF0175DCAD75FF0175DDCDE4F5FF75CB
:105190009A74F5FF7594842275FF0175DC5375FFD1
:1051A0000175DD33E4F5FF759A14F5FF759404225B
:1051B00075FF0175E46575FF0175D647229030F5DE
:1051C000EDF0901211E0FEF46006A3E0FDB4FF0CD8
:1051D0009030F77418F0A37413F080089030F7EE55
:1051E000F0A3EDF012255664016002611E9030F5C7
:1051F000E0FE64086004EEB404089030F67428F011
:1052000080069030F6743AF0EF12417D1228BEE429
:10521000711FEF24D8FFEE343FFEED3493FDEC34E4
:1052200016FC7B007A807903780012184E71449046
:1052300030F8E0FF9030F7E0C3123FCEE4FCFD12FF
:105240002794ECC0E0EDC0E0EEC0E0EFC0E09030AD
:10525000F8E0FFE4FCFDFE711FD0E0FBD0E0FAD0E7
:10526000E0F9D0E0F8EB2FFBEA3EFAE93DF9E83C43
:10527000F89030F6E0FFE4FCFDFE122794EF245492
:10528000FFEE340B12431CE47BA87A16F9F81218CF
:105290004ECBEFCB9030F5E014605E14601B24FE23
:1052A000600C24FC7078E4F5FF75CE318006E4F5DF
:1052B000FF75CE21F5FF8BCF22E4FAE4F5FFEA2457
:1052C00040F5CEE4F5FFEAFFC37407123FCE74F752
:1052D0002FF58274183EF583E47127C39DF5CFE462
:1052E000F5FFEA2448F5CEE4F5FFEA9018F77127B8
:1052F0002DF5CF0AEAB408C322E4F5FF75CE01F517
:10530000FF8BCFF5FF75CE0EF5FFEB25E0F5CFE473
:10531000F5FF75CE0FF5FFEB75F003A4F5CF227BFB
:1053200064FAF9F80227949325E0FDE433FCEB7569
:10533000F010A4FFAEF0122637CDEFCDEBFFE4C3A3
:1053400013EF1322C8ECC8C9EDC9CAEECACBEFCB24
:105350002275FF01E5D530E602C32253FACFEFB440
:10536000080543FA308012EFB4040543FA2080099F
:10537000EFB4020543FA108000D322E5F454181369
:105380001313541FFF2275FF01E5D520E602C32247
:10539000E5FA540360FA75FF018FC3D322CEEFCE36
:1053A00075FF01E5D520E602C32243FA04E4FDEDD2
:1053B000C39E50077F5571860D80F4E5FA54307016
:1053C000047F0F80027FF07186D322E5F730E5106D
:1053D000E5F754C0700512374640F01247E6C32285
:1053E000D322E5F71322EFB40109D2AD75FF0143D3
:1053F000AE4022C2AD75FF0153AEBF2275C8012277
:10540000E5C85402FF75C80222E5C85401FF22E432
:10541000F5FFED540F4FF5DB22E4F5FFEF25E0F546
:10542000DCE4F5FFEDF5DDE4F5FFECF5DDE4F5FF9B
:1054300043DB10229031BE1229AEE4F5FFE5DB20FC
:10544000E4FBE4F5FFF5DCFDE4F5FF9031BE122945
:105450008EED916D1226E3AEF0F5DDE4F5FFEEF58D
:10546000DD0DEDB404E2E4F5FF43DB102275F0023C
:10547000A4F58285F08322E4F5FFE5DBC330E40187
:10548000D322EFF0A3EDF0A30229AEEFF0A3EDF0ED
:10549000A3EBF022FF12298E900002EF02260312E6
:1054A000256FFFC41313135401C4333333548022C4
:1054B000122603E92402F9E43AFA22F0A3F0A3F059
:1054C000A3F0A32212298E902EA81229AE902EAB03
:1054D000741CF0A3745FF0227E607F017B017A2A46
:1054E0007984228F828E837F01022AD97B017A12EE
:1054F000791C902FDF0229AEE0FFA3E0FDA3E0FBC3
:105500002290042912298EE92407F9E43AFA74FF5B
:1055100002259C122603900002E402260312298E23
:10552000E92404F9E4227B017D01121B017B0122A5
:1055300012298E74010225F1AA06A907022AD5EFC5
:10554000F0A30229AE7B01902EE40229AEE0FEA377
:10555000E0F5828E83229002BDE0FEA3E0FF1219E7
:10556000A8D3EF94C8EE9400227B007A0079002241
:105570001229AE022556EFF0A3EDF0E422E0FDA3E0
:10558000E0902F35CDF0A3EDF0229021C87487F084
:1055900022547FFFE054804FF022E0F8A3E0F9A30B
:1055A000E0FAA3E0FB22F0E4A3F0A304F022AF03AF
:1055B000EAF0A3EFF022E0FCA3E0FDA3E0FEA3E00D
:1055C00022902FE77408F022EEF0A3EFF0ED22FF17
:1055D000E4F0A3EFF022E0FFA302298E7A2A799467
:1055E0007F0802198AE92405F9E43A22E0FDA302C2
:1055F000298EFBFAF9021C69E0FF7405C39F22752E
:10560000FF01438E1075FF0122902C057401F0A359
:10561000E4F0229002B5E0FD0219D5FE1247619038
:10562000120FE022902B0CE0FF14F0EF227F1012FB
:105630002FF1902BFF22EEF0A3EFF07B01227C00F4
:10564000FFEC35F0FE22F583EEF0A3EFF0227D01B2
:10565000121B017B0122AF05ECF0A3EFF02212290F
:105660008E7D05E4FF22758300EF0226038B828A7C
:1056700083022AD97425F0A374FFF02275FF0390EA
:105680002B0CE02224FBFFE5F034FF22FFFFFFFF9D
:10569000FFFFFFFFFFFFFFFFFFFFFFFFFFFFFFFF1A
:1056A000FFFFFFFFFFFFFFFFFFFFFFFFFFFFFFFF0A
:1056B000FFFFFFFFFFFFFFFFFFFFFFFFFFFFFFFFFA
:1056C000FFFFFFFFFFFFFFFFFFFFFFFFFFFFFFFFEA
:107FB000FFFFFFFFFFFFFFFF7FC6792968861C5B7D
:107FC00001590154838DFFFFFFFFFFFFFFFFFFFFFC
:107FD000FFFFFFFFFFFFFFFFFFFFFFFFFFFFFFFFB1
:107FE000FFFFFFFFFFFFFFFFFFFFFFFFFFFFFFFFA1
:107FF000FFFFFFFFFFFFFFFFFFFFFFFFFFFFFFFF91
:10800000EF547024F0602624F0603C24F060522489
:1080100030706730300B117E8002C333D8FC428051
:1080200022117E8002C333D8FCF452802230300B00
:10803000117E8002C333D8FC429022117E8002C39D
:1080400033D8FCF452902230300B117E8002C333BF
:10805000D8FC42A022117E8002C333D8FCF452A087
:108060002230300B117E8002C333D8FC42B0221183
:108070007E8002C333D8FCF452B02275FF01EF5466
:1080800007FF7401A8070822EF547024F06017243A
:10809000F0601E24F060252430702B117B8002C319
:1080A00033D8FC42FD22117B8002C333D8FC42C985
:1080B00022117B8002C333D8FC42CA22117B80028A
:1080C000C333D8FC42CB22EF547024F0601824F064
:1080D000602024F060282430702F117B8002C3338D
:1080E000D8FCF452FD22117B8002C333D8FCF45239
:1080F000C922117B8002C333D8FCF452CA22117BFF
:108100008002C333D8FCF452CB2290278AE090320D
:108110000DF0EF6023E0FF131313541FFE51742E74
:1081200012E59EC083C082E0FE117E8002C333D878
:10813000FCF45ED082D083F090320DE004FF9031E9
:10814000CDEFF090278E12554DA3A3E03333335477
:10815000F89031CEF020090221EA9031CEE0FF9074
:1081600031CDE0FEC39F504AEE131313541FFF514D
:10817000742F12E59EE0FD7C00EE31EE8005C333E6
:10818000CE33CED8F912F6C160209031CDE09027E1
:108190008AF0123FA4AD0790278AE004FF7A1A7B89
:1081A0000712ECCAEF704502ED619031CDE004F0AA
:1081B00080A8C212C20990278D7401F090272DF07B
:1081C000A37407F0E4A3F090272C7403F090278B9E
:1081D000E0FF12C39F516D90273212F8759027313E
:1081E00012C0F070077F0202A12DC21222ED5407C7
:1081F000FF74017E00A8070822AD07ED547024F03B
:10820000601F24F0603224F060412430705231ED60
:108210008005C333CE33CED8F9AC8051626001D330
:108220002231ED8005C333CE33CED8F9FFAC90ECCC
:10823000FBEF5BC36001D32231ED8005C333CE3346
:10824000CED8F9ACA051626001D32231ED8005C3D4
:1082500033CE33CED8F9FFADB0EF5DC36001D3228A
:10826000C322FFECFBEF5BC322E4FF210A902C4DFD
:108270007403F02290278EE0FCA3E0F5828C83A3A8
:10828000A3A3E58222902DF01229AE1229B7902DDA
:10829000F71229AE128A37F9E43AFAE41225F1C24C
:1082A00004902213F0902DF7129F0C7B017A227913
:1082B000017F04129F1B20321712F7BA12D35F12EC
:1082C000A75BEF600B128A37128A2544801225F1D2
:1082D000128A37128A2530E77190121CE06039301B
:1082E0000D36128A2F2405128A25540FFF6405606B
:1082F00059EF6401702212255630E71C128A2F2490
:108300000A128A25C4540F128A2C128BE512F633F6
:1083100012F7B412DDAE6032200803028960200A31
:1083200029128A2F2405128A2520E71E128A2F126D
:108330008B70E92401128A25B4030F128A2F128B45
:108340007012A74CEF7003028960128A2F24061264
:108350008A25540FFF9021FFE07E00B402027E8048
:10836000EF4E9023B0F0128B7824B7128A25FF7B52
:10837000017A2D79F312E86B128B78129C52122637
:10838000B85407FF128B7824B8128A25540FFE9038
:108390002DF3E0540FFDBD04047D4080027D00EE0E
:1083A0004DFEEF7F00B402027F80EE4F902206F078
:1083B000128A2F2405128A25FF540F24FE7003020F
:1083C000889814700302892E24FE700302895524B4
:1083D000046003028960128A2F2407128A25FE7422
:1083E0000AD39E4002802AEF20E70302883E9023B2
:1083F000B0E04440F0128A2F240A128A25C4540F98
:10840000902DF4F0600BE0D394045005740B9E4063
:108410000B128A37F9E43AFAE40225F1128A2F2482
:1084200008128A25128BF26002C111128A2F2409C8
:10843000128A25902DF730E35F12F523128A25C4A6
:10844000540F128A2C128BE5122556FFC4540F29A3
:10845000F9EE3AFA129058C003C002C001902DF014
:1084600012BDBDF9E43AFA1229D7128A2F240A1252
:108470008A25C4540FFFFD7C00128A2F240BF9E4D7
:108480003A12F6FFC4540FFE128A2F2407128A25CF
:10849000C39FC39E24F3803A12F523128A25C45445
:1084A0000F128A2C128BE5C003C002C001902DF080
:1084B00012BDBDF9E43AFA1229D7128A2F240A1202
:1084C0008A25C4540FFF128A2F2407128A2524F408
:1084D000C39F12F802129D99128A2F240A128A252C
:1084E000540FFF902DF4E06F6002A18D902200E008
:1084F0006002E1A2128A2F2405128A25902DF03005
:10850000E60A128A3A128A25440D8008128A3A1223
:108510008A2544091225F1128A2F12ED5A7E001283
:108520008BEB12F6A9FA122556129D8F128A37127A
:108530008A2530E702E1A2128A2F2405128A25201B
:10854000E702E1A2128A2F240A128A25C4540FFFDF
:10855000128A2F128BE5122556D394014002E1A214
:10856000E92401128A2564036002E1A2128A2F2401
:108570000A128A25C4540FFF128A2F128BE512F6B5
:1085800033129F0F7B01129F15D205E1A2128A2F91
:10859000240A128A25540F640F6002E1A2128A2F66
:1085A0002405128A2530E60B128A37128A254404E4
:1085B0001225F112D2405022128A2F240A128A2543
:1085C000C4540FFF902DF712298E128B80500B127E
:1085D0008A37128A2544011225F1128A2F240912A2
:1085E0008A25FF30E10A128A37128A254420800C3E
:1085F000EF30E20B128A37128A2544401225F1121D
:108600008A2F240B128A25FF902DF012E5AEEFE1A0
:108610002C128A2F240A128A25FF540FFDEFC4540E
:108620000FFCEDC39C4002E131128A2F12CC96FA66
:10863000122556128BF26002E131128A2F240912A0
:108640008A2530E06212D240500C128A37128A25F5
:1086500012F65C7405F0EC14902DF7B5050812299C
:108660008EE92404800712CC92FAE92401128A25AB
:10867000129D8FED6002C1FE128A2F2409128A25F5
:1086800030E37B128A2F240A128A25C4540F128ADF
:108690002C128BE5122556540F7063E92401128ABF
:1086A0002554186059804CED902DF7700612551D19
:1086B0003A800712CC92FA12F6A9FA122556129DA8
:1086C0008FEC146D7038128A2F2409128A2530E33A
:1086D0002D128A2F240A128A25C4540F128A2C12B2
:1086E0008BE5122556540F7015E92401128A255482
:1086F00060600B128A37128A2544041225F19022F9
:1087000000E06008902213E07002E1A2128A2F2498
:1087100005128A25902DF030E60A128A3A128A252F
:1087200044148008128A3A128A2544101225F180D6
:1087300071128A2F240A128A25540FFD12D240503A
:1087400061128A2F2409128A2530E028ED24025470
:108750000FFD128A2F240A128A25C4540FFFEDC37D
:108760009F503F128A2F12CC96FA122556128BF286
:1087700070308022EDC394024028128A2F12ED5AE5
