:020000040000FA
:100000000203370218034100C4002202180B222207
:0100100022CD
:07001300021813E4FFA10E27
:07001B0002181B75C8012249
:030023000218239D
:03002B0002182B8D
:030033000218337D
:03003B0002183B6D
:030043000218435D
:03004B0002184B4D
:030053000218533D
:03005B0002185B2D
:030063000218631D
:03006B0002186B0D
:10007300021873BB010689828A83E0225002E722B9
:10008300BBFE02E32289828A83E49322BB010CE54F
:100093008229F582E5833AF583E0225006E9258239
:1000A300F8E622BBFE06E92582F8E222E58229F57D
:1000B30082E5833AF583E49322BB010689828A832E
:1000C300F0225002F722BBFE01F322F8BB010DE53B
:1000D3008229F582E5833AF583E8F0225006E92583
:1000E30082C8F622BBFE05E92582C8F222C5F0F8D4
:1000F300A3E028F0C5F0F8E582158270021583E0CD
:1001030038F022A3F8E0C5F025F0F0E582158270FF
:10011300021583E0C838F0E822BB010A89828A838A
:10012300E0F5F0A3E022500687F009E71922BBFEB1
:1001330007E3F5F009E3192289828A83E493F5F052
:1001430074019322BB010A89828A83F0E5F0A3F04C
:10015300225006F709A7F01922BBFE06F3E5F009C2
:10016300F31922EF2BFFEE3AFEED39FDEC38FC22BA
:10017300C3EF9BFFEE9AFEED99FDEC98FC2275F020
:1001830008758200EF2FFFEE33FECD33CDCC33CC99
:10019300C58233C5829BED9AEC99E58298400CF5B4
:1001A30082EE9BFEED9AFDEC99FC0FD5F0D6E4CEE2
:1001B300FBE4CDFAE4CCF9A88222B800C1B9005916
:1001C300BA002DEC8BF084CFCECDFCE5F0CBF978E3
:1001D30018EF2FFFEE33FEED33FDEC33FCEB33FB77
:1001E30010D703994004EB99FB0FD8E5E4F9FA2201
:1001F3007818EF2FFFEE33FEED33FDEC33FCC933FC
:10020300C910D7059BE99A4007EC9BFCE99AF90FC3
:10021300D8E0E4C9FAE4CCFB2275F010EF2FFFEE2F
:1002230033FEED33FDCC33CCC833C810D7079BEC7A
:100233009AE899400AED9BFDEC9AFCE899F80FD5F2
:10024300F0DAE4CDFBE4CCFAE4C8F922EF5BFFEE8D
:100253005AFEED59FDEC58FC22EB9FF5F0EA9E4265
:10026300F0E99D42F0E89C45F022E8600FECC313EF
:10027300FCED13FDEE13FEEF13FFD8F122E8600F40
:10028300EFC333FFEE33FEED33FDEC33FCD8F12245
:10029300E0FCA3E0FDA3E0FEA3E0FF22E0F8A3E07F
:1002A300F9A3E0FAA3E0FB22ECF0A3EDF0A3EEF058
:1002B300A3EFF022A8828583F0D083D0821202CEEE
:1002C3001202CE1202CE1202CEE473E493A3C583CC
:1002D300C5F0C583C8C582C8F0A3C583C5F0C5836F
:1002E300C8C582C822E0FBA3E0FAA3E0F922F8E044
:1002F300FBA3A3E0F925F0F0E582158270021583D4
:10030300E0FA38F022EBF0A3EAF0A3E9F022D0837D
:10031300D082F8E4937012740193700DA3A393F841
:10032300740193F5828883E4737402936860EFA386
:10033300A3A380DF75814B02079BAEFFEE54CFFE74
:10034300EFC454F024804EF5FF2290091151AB9075
:1003530009115193B1A1900915E06F6034110F9108
:1003630002EF6004111080F7B11AB1DB9000BAE01C
:10037300FF91E6600990091151937810719A9009E1
:1003830011719690091191EF900915E0FFB108D30F
:1003930022C32251937808516DE4E5C820E2FB8F14
:1003A300EB229000D151AB9000D57108110F91024F
:1003B300EF6004111080F7B11AB1DB9000BAE0FFCF
:1003C30091E660099000D151937810719A9000D111
:1003D30071969000D15193E4801B9000D8D1BB60FB
:1003E300189000D551E8EA494B60089000D5120EE9
:1003F3002B8001E4FF719D80E1B126E4FFA10E7F14
:1004030001B10E30021491D8915290092AEFF0B144
:100413002690092AE020E002C2023002179141909F
:1004230000B8EF91F4600BA3E0F46006EF30E7024D
:10043300C202B126E4FFB10EA202E433FF22B1DB14
:100443007FD7719D7FFF719D91569000B7EFF07F2D
:10045300FF719DE5C820E2FBAFEB227F01B10E9057
:1004630009287401F0900928E0602E91D8915290E8
:100473000928EFF0B12691419000B8EFF0B1269032
:100483000928E0540191F460DCA3E0F460D7EF3075
:10049300E7D3E4900928F080CCB1DB7F9F719D9175
:1004A300529000B991509000BE91509000BFEFF070
:1004B300B10A9000B7E0F4601BA3E0F4601690006B
:1004C300BEE0FD541F240FA3F0EDC4135407448072
:1004D3009000BEF022B1DB7F05619D7F01B10EB1BB
:1004E300DB7F03719D9000BDE06402225193E461C0
:0904F3009DF09000B7E0FFF42237
:10050800719DB126E4FFEFB4010443FE202253FE9F
:10051800DF227F01B10ED202B1DB7F06719D12137B
:10052800E7EF70FA9000BEE0F4600A9009277406BD
:10053800F0F17D70FC9000BCE07111055F04056767
:1005480014056C15057117058130058634058B3641
:1005580005903700000579434610854680802F4373
:100568004710800843472080034347808547908091
:100578001D4348208548A08015434901800D434903
:1005880010800843494080034349808549B0900959
:1005980027740CF0F17D70FC2290090C51AB110FFF
:1005A8009102EF6004111080F791DE600990090C48
:1005B80051937810719A90090C719690090C91EFEB
:1005C8009152900910EFF0B10A900910E0FF227FD4
:1005D80001B10E9000BCE0711105FD04060514067A
:1005E8000A15060F17061F30062434062936062E6C
:1005F80037000006175346EF854680802F5347EF94
:1006080080085347DF800353477F854790801D53F9
:1006180048DF8548A080155349FE800D5349EF8077
:10062800085349BF800353497F8549B07F0CDFFEDB
:1006380022110F9102EF6004111080F7B11AB1DB9B
:100648007F01719D7F03719DB126E4FFA10E90008B
:10065800DA51AB9000DE7108110F9102EF600411BE
:100668001080F791DE60099000DA51937810719A42
:100678009000DA71969000DA91EF9000E1D1BB60BA
:100688001291529000DE51E8EF11BC9000DF121277
:10069800AA80E7B126E4FFA10E9000B7E020E0129F
:1006A800B1D77F3D719D7F2A719D7F80719D7FA607
:1006B800B1082274FFF5F0310645F022900929EFC0
:1006C800F09000C5E064027022B1D7900929E07F5C
:1006D800AB60027FB9719DB126900929E09000C4F2
:1006E800F070047F1EDFFEE4FFB10E22900000EEE2
:0806F800F0A3EFF0A351939071
:10070000000851AB900006E0FFA3E090000CCF8002
:100710005D90000C120FDC605BC3EF9440EE940020
:100720004006A37440F0800590000EEFF0F185E0E4
:10073000FF120D0DEFF09000085193D15690000E6E
:10074000E0FFC390000DE09FF090000CE09400F0FB
:10075000900008519F90000EE4FCFDFE3166900071
:100760000851ABF174F185120C32900000EEF0A349
:10077000EFF0809D900000E0FEA3E0FF22900927AB
:10078000E014F0E0227B017A00790F90000E221134
:100790000F9102EF6004111080F72275FF03759E20
:1007A000029017FAE493F53C75FF02E5E654036006
:1007B00003020B5D753CDE753DAD753EBE753FEFCA
:1007C000C2AF75FF0275E404F5E47546FF7547FF97
:1007D0007548FF7549FF7542FF7543FF7544FF7506
:1007E00045FF75FF0253E6BF1212CD1210D4120F4F
:1007F000E3EF64016003020B5490180893FE740148
:1008000093FF9000ADEEF0A3EFF0F5828E83E493BA
:10081000F540740193F541740293F54A740393F51E
:100820004B740493F530740593F531740693F532E7
:10083000740793F533C201EF4E7002212BEFF4FFE2
:10084000EEF44F7002212BE540454AFEE541454B51
:10085000FFE5304EFEE5314FFFE5324EFEE5334F0A
:100860004E7002212BE54BF4FFE54AF4FEE541F41E
:10087000FDE540F44EFEED4FFFE531F4FDE530F4CB
:100880004EFEEF4DFFE533F4FDE532F44EFEEF4D45
:100890004E7002212B7F0312033DE53324FFFFE559
:1008A00032B124640370247F0212033DE53124FF3A
:1008B000FFE530B124B402137F0112033DE54B2460
:1008C000FFFFE54AB124B40102D20120015D7F019E
:1008D00012033DB1459000E8E54AF0A3E54BF07FF7
:1008E0000F7E1D91A57F02B13A9000E8E530F0E55A
:1008F0003191A37F03B13A9000E8E532F0E53391FE
:10090000A37F0112033D900922E0FEA3E0FF7BFFDD
:100910007A187900E425419000E9F0E54034E89048
:1009200000E891A44EC37001D39201300109B19A3D
:10093000EF6401600261549000ADE0FEA3E0F58237
:100940008E83740C93F53A740D93F53B90009612D8
:1009500002937160900079B181FD9000AF7188EFD2
:100960002408FFE43E71727B007A007938B10D747F
:1009700002F0120656C200D3900078E0953990003C
:1009800077E09538400241639000AF12029FC000AB
:10099000C001C002C003AE38AF39E4FCFDC006C0E0
:1009A00007900077E0FEA3E0FBAA06E4F9F8D00781
:1009B000D006120173D003D002D001D0001201661C
:1009C000716090007B120293EF24F2FFEE34FFB1CE
:1009D0004C9000AFB1D4400241639000AF1202933B
:1009E0007A00799FB10B740EF01206569000ABE0BE
:1009F000F536A3E0F5379000A1E0F54AA3E0F54B0A
:100A0000A3E0F530A3E0F531A3E0F532A3E0F53340
:100A1000900092120293EF24FFFFEE347F71727107
:100A200060AE4AAF4BE4FCFD9000AF71881205A1A7
:100A3000EF6401702E71667160AE30AF31E4FCFD81
:100A40009000AF71881205A1BF021871667160AE87
:100A500032AF33E4FCFD9000AF71881205A1BF03F3
:100A600002D200200002615030010EE53B65377074
:100A700004E53A6536700261507B017A097922718A
:100A80008E4002615090009B1202B7000018007166
:100A90007A612A7440D395345002613F90007B9173
:100AA000B3EE34F8B14C9000AF12029FD312025C47
:100AB0004002613F90009B1202937B007AF879011B
:100AC0007800C312025C40779000AF1202930B7A59
:100AD0000179009000E17408F0A3E4F0120656E4F6
:100AE000F535FB91DFAF34B156E535C3940850209E
:100AF00091DDE5357F00FEEF2400F974013EFA7BBD
:100B00000190090BE535F0AD34121330053580D96D
:100B100090009B91B3EE3408717290009B1202AB6F
:100B20009000AF91B3EE340871727160E4FB7A0803
:100B3000F9F890009B1202931201BD8F3441937417
:100B400040D39534400A91DDAF34B156053480EF7F
:100B5000E4FFB1DBE4F53CF53DF53EF53F0218005E
:100B60009000AF0202AB9000AF120293E42FFFEEB1
:100B70003480FEE43DFDE43CFC22900079E0FEA3DD
:100B8000E0FFE4FCFD90009612029F0201669009CE
:100B90001F120308717AEF2408FFE43E71727A0095
:100BA000797FB10B7402F012065690007FB181FD7F
:100BB00090009271887B017A007984B10D740EF0F7
:100BC000120656900092716991C2900086B12D7FF5
:100BD0000F7E1D91C8B114C006C00791B0E43E91CC
:100BE000BA900088B12DD007D00691C8B114C006C4
:100BF000C00791B0EE348091BA90008AB12DD00731
:100C0000D00691C8B114C006C007717A91C2900095
:100C100085E02400FE900084E034E8900006F0A314
:100C2000CEF0D007D00691C812011C45F0C3700168
:100C3000D322E0FD9000E8E4F0A3EDF09000E3EEB5
:100C4000F0A3EFF0A31203089000E81206BB604A7D
:100C50009000E5D12B9000EAF07D80ED60EA919A5A
:100C6000EE7C0030E7027C019000EAE05D7B0060F2
:100C7000027B01EB6CFCEF25E0FFEE339000E3F02C
:100C8000A3EFF0AF04EF600C9000E3E06410F0A37A
:100C9000E06421F0EDC313FD80C19000E3E0FEA30A
:100CA000E0FF22A3F0913C900922EEF0A3EFF022A6
:100CB000900092120293E42FFF22FEED3401FDE436
:100CC0003CFC9000020202AB1206F490091F1202D3
:100CD000E8EE8FF012014790091F0202E87B007ACC
:100CE00000793CB17A75FF03120076F5D375FF03E6
:100CF000900001B11B900002B11B900003B11B7565
:100D0000D40175FF03E5D55402FF227B019000E179
:100D1000E4F0A32212011CFFAEF02212008FF5D3E3
:100D200075FF0322347F8F82F583E49322E0FFA3D3
:100D3000E0900006CFF0A3EFF02212033D900922CD
:100D4000E0FEA3E0FF7BFF7A80790022FEED34FF16
:100D5000FDEC34FFFC2275FF03EF543F4480F5D1D6
:100D6000E5D520E20AE5D520E005E5D530E1F1E55D
:100D7000D55403FF75FF0375D50575FF0375D402C0
:100D800022E0FEA3E0FFE4FC227F0F7E1D91349061
:100D900000EF1202E89000F28132E4900926F09010
:100DA000009AE06020B1CB70087FFF7E77FDFC8069
:100DB0000CD11B50107FFF7EFF7D017C001205A12E
:100DC000900926EFF0900926E0FF22E4FFFE7D0265
:100DD000FC90007B12029FC302025C900924EFF09A
:100DE000E4A3F090009AE06021B1CB7008D1107EAE
:100DF000777D00800AD11B5011D1107EFF7D017CD0
:100E00000012034DE433900925F0900925E0FF22FC
:100E1000900924E0900915F07FFF2290007B1202D8
:100E200093E4FBFA7904F8D302025CE475F0011252
:100E300002F1020076B17A75FF03E5D5F45402FFA2
:100E4000229000FCD15CC0079000FC1202E89000E8
:100E5000FFE0FFB10DEFF0D007020656120308E4E1
:100E6000FCFD22900902D15CC0079009021202E841
:100E7000900905F1D0F0D00790004F1202AB90001E
:100E800053120308E4900076F0D3900057E0941ECC
:100E9000900056E094004001227B017A007958903E
:100EA0000056E0FFA3E09000E1CFF0A3EFF0900048
:100EB0004F1202931206569000531202E8E94A605C
:100EC0000F900076E0F58275830012008FFF80029C
:100ED0007F00900076E02458F582E43400F583E04A
:100EE0006F6002C322900076E004FFF0D3900057B9
:100EF000E09F900056E0940050BD229000C6120280
:100F0000AB9000CA1203081214389000CDF1D0F053
:100F10009000C6120293D1785002E1C59000C1E062
:100F200024FFFF9000C0E034FFFEE4FCFD9000C60B
:100F300012029F12024F9000CFEEF0A3EFF04E602E
:100F40003BF1C7C39000C1E09FFF9000C0E09EFE50
:100F50009000CFF0A3EFF09000CDE0FCA3E0FDD334
:100F60009FEC9E5006A3ECF0A3EDF01213F3E94AB8
:100F70006004F1C780427E007F00803C9000CDF18C
:100F8000DC60409000C0E0FCA3E0FDD3EF9DEE9C50
:100F9000400A9000CFECF0A3EDF0800D9000CDE082
:100FA000FFA3E0A3CFF0A3EFF01213F3E94A60042C
:100FB000F1C780047E007F009000CBEE8FF012001E
:100FC000F080B9D322C3229000CFE0FEA3E0FF223D
:100FD000E0FFA3E0900056CFF0A3EF22E0FEA3E0F5
:100FE000FF4E22E490009AF07B017A00798112137F
:100FF00078900083E0FBB411229000961202B700B3
:101000000078009000921202B70000600090007714
:101010007418F0A3E4F0A3F0A380277412D39B50BC
:10102000279000961202B700020000900092120270
:10103000B700020000E4900077F0A3F0A37418F06A
:10104000A3E4F090009A04F090009AE0FB6017E4AB
:10105000FFFE7D02FC900083E024EFF9F81202808D
:1010600090007B1202ABAF032275FF03E4F59751AA
:10107000B1E59720E1FB75FF03AF9922900916EFC8
:10108000F0A3EDF0A3120308900917E06045901259
:1010900015E06012900916E02410FF1169900918FC
:1010A0001202E8EF8017900916E0640190091870A9
:1010B000071202E8748080051202E874FF1200BC77
:1010C00090091951AA900917E014F0900916E0044C
:1010D000F080B5227B017A0079BC7F0351917A00C0
:1010E00079C57F0851917A0079C27D027F09117C10
:1010F0007B017A0079C07D027F0B117C9000C012C9
:101100000FDC6006BEFF1BBFFF189000C5E024FD8A
:10111000600304700451A080099000C0E4F0A3743F
:1011200040F09000C5E024FD60030470089000BD0D
:101130007403F080069000BD7402F09000BCE012D1
:101140000311115E04116914117115117917118FB2
:1011500030119734119F3611A7370000118475FFA5
:10116000015342EF8542FD804775FF015343EF80F5
:101170000E75FF015343DF800675FF0153437F85E2
:1011800043C9802C75FF015344DF8544CA80217513
:10119000FF015345FE801675FF015345EF800E7524
:1011A000FF015345BF800675FF0153457F8545CB41
:1011B0001205267F11518BE4FF1206C412045E90C3
:1011C00000BA7402F09000BEE0247F60090470163B
:1011D0005198740A80071206A151987458F0900033
:1011E000BD7403F051A09000BFE0F460024188900C
:1011F00000C2E0FEA3E0FF64104E70069000BF74D2
:101200000EF0EF64204E70069000BF740FF0EF6494
:10121000404E70069000BF7410F0EF64804E700670
:101220009000BF7411F0E4B5070AEEB40106900017
:10123000BF7412F0E4B5070AEEB402069000BF7462
:1012400013F0E4B5070AEEB404069000BF7414F07E
:10125000E4B5070AEEB408069000BF7415F0E4B5D3
:10126000070AEEB410069000BF7416F0E4B5070A42
:10127000EEB420069000BF7417F0E4B5070AEEB490
:1012800040069000BF7418F0020639EF4420F5FEC6
:10129000227D01117C7B01227F10518B9000BA22AC
:1012A0009000C07401F0A3E4F022E475F0010200A4
:1012B000F075FF038F9875FF032275FF0375970183
:1012C00051B1E59720E1FB75FF03AF992290091B0F
:1012D0007410F090091BE0FFD3947F503D1169908A
:1012E000091CEFF090091BE0B410067E1D7F0F80F3
:1012F0000890091DE0FEA3E0FF7B017A09791C90AC
:1013000000E8E4F0A304F0120C3C90091DEEF0A3F9
:10131000EFF090091BE004F080B990091DE0700225
:10132000A3E07F0070027F01901215EFF024FF22EE
:1013300075FF03ACD5EC20E13C75FF03ED543FF5A0
:10134000D175FF03E9F5D375FF03EA540FFF900948
:101350000BE0C4547044804FF5D2E5D520E205E59A
:10136000D530E0F6E5D55401FC75FF0343D4027592
:10137000FF0375D505AF04229000B9E01200BC90C0
:1013800000BEE09000011200CE9000BFE09000028D
:101390000200CEE4FCFD0205A1AB05E4FCFD9009D2
:1013A00015EBF002034D9000F5120E5CC0079000A3
:1013B000F51202E89000F8E0FFA3E09000CDCFF036
:1013C000A3EFF0D007020EFBEFB40109D2AD75FF19
:1013D0000143AE4022C2AD75FF0153AEBF22E5C846
:1013E0005402FF75C80222E5C85404FF22E5C85420
:1013F00001FF229000CA1202E89000CFE0FFA3E0B4
:101400009000D8CFF0A3EFF09000C6120293120321
:10141000A59000CFE0FEA3E0FFC39000CEE09FF0D8
:101420009000CDE09EF09000C612029FE4FCFD12F9
:0E14300001669000C61202AB9000CA0202E8EC
:1017FA000418FFFEFFFF022BF41CFF1CFA227FB81D
:10180A00EF90181393901900730A20364CE57EFF67
:10181A0022EFF57E221D041D091D0E1D131D181A27
:10182A00570240CB000E1384000E18FC000E225CF7
:10183A00020202003F3F3F0404041B381B3D1B42C7
:10184A00FF02505EC2D5E830E70FB2D5E4C39BFB76
:10185A00E49AFAE499F9E498F8EC30E717B2D51269
:10186A00188412283DE4C39BFBE49AFAE499F9E44C
:10187A0098F8800312283D30D50DE4C39FFFE49EFB
:10188A00FEE49DFDE49CFC22788CE4F6D8FD9000F1
:10189A00007F007E10E4F0A3DFFCDEFA904FFFA386
:1018AA00E583C394204011FEAF829020000E0FE41E
:1018BA008002F0A3DFFCDEFA121920022C06223283
:1018CA003F241E16110E0B09070504030201F0C876
:1018DA00A7917767604638353230242220140001F8
:1018EA0001020203030404050506060707822D1CEC
:1018FA001613111010FFC07E7419C0E0C082C08395
:10190A00757E0AE5FF54CF4490F5FF22C07E741914
:10191A00C0E0C082C083757E20E5FF54CF4490F5B5
:10192A00FF22C07E7419C0E0C082C083757E36E58E
:10193A00FF54CF44A0F5FF22C07E7419C0E0C082D4
:10194A00C083757E4CE5FF54CF44B0F5FF2290A8C2
:10195A0014211690B7F8211690B802211690C7F0F4
:10196A00211690C7F3211690CFEE211690AF55217C
:10197A001690AF3F211690D7EF2116909E0A211696
:10198A00909B9E211690AA40211690E02021169045
:10199A00AF27211690AB6A211690E5D3211690E560
:1019AA00EE211690E6AD21169098A2211690E4E752
:1019BA00211690E48D211690B6A4211690991A2129
:1019CA001690E918211690E930211690E42B211679
:1019DA00909F8B211690D89621169090B021169040
:1019EA00EAC0211690EAD5211690EAFD211690EB5D
:1019FA0025211690D26A211690ED40211690EF2FDC
:101A0A00211690A8D3211690A8ED211690A834216A
:101A1A001690DF80211690811F211690DDB42116C1
:101A2A0090EF46211690EE17211690DDE0211690D0
:101A3A00A9AA211690A923211690E029211690ED32
:101A4A008B211690D076211690D098211690DD1110
:101A5A00211690DA7C211690E6A0211690C8212141
:101A6A001690F07E211690F0C3211690F0E121160F
:101A7A0090F134211690F14D211690F20921169019
:101A8A00C360211690D0EE211690D10C211690EB4E
:101A9A000E211690D787211690D7AB211690BD97A5
:101AAA00211690F217211690F333211690E4B121F2
:101ABA001690BB90211690F352211690C4612116FC
:101ACA0090F355211690CBAF211690CBF6211690A4
:101ADA00A20A211690F444211690F481211690CA84
:101AEA0089211690C8E1211690F533211690F560E8
:101AFA00211690F56E211690F594211690F5B121D4
:101B0A0016909BC9211690C243211690F67621168B
:101B1A009089D02142908A0B2142908A6121429079
:101B2A008AC32142908501214290927A214290866D
:101B3A0090214290929721429092A621429080460B
:101B4A002142908000214290808C21429092C721AC
:101B5A00429086EC21429093BF21429093C7214242
:101B6A009095B4214290973F2142909858214290F3
:101B7A00986F214290822B2142909880214290981E
:101B8A0083214290997421429088E9214290997761
:101B9A002142908BA2214290978B21429089392130
:101BAA004290965E2142909AF62142909B222142CF
:101BBA0090D639212C90D63F212C909F75212C90BC
:101BCA00D6EA212C90D6EB212C90A442212C90B558
:101BDA00A6212C90D896212C90B170212C90B0D5AA
:101BEA00212C90D8A2212C90A6C1212C90A1CC21E5
:061BFA002C90A1E2212C59
:101C0000909406212C90D8EA212C90D8D4212C90A5
:101C1000D8F4212C90D415212C90D436212C90DA94
:101C200037212C909BB7212C90DD9D212C90D448FE
:101C3000212C90D17C212C90CA22212C90CA852164
:101C40002C90DF4D212C90BD12212C90DF78212C7F
:101C500090B80B212C90DDE0212C90A96F212C90C5
:101C6000DFF0212C90B141212C90E072212C90E0EA
:101C7000A5212C90A3A0212C90B0EE212C90BF1B6D
:101C8000212C90BD18212C908FA9212C908FAC2154
:101C90002C90E0B6212C908FF8212C90AE50212C66
:101CA00090B8BD212C90E2B8212C90BA2E212C9016
:101CB000D518212C90A0CB212C90D973212C90D514
:101CC000B3212C90BBFF212C90952D212C909B199A
:101CD000212C909514212C90D4E6212C90CFD52145
:101CE0002C90E54A212C90BF33212C909009212C77
:101CF00090E0E4212C90E105212C90843C212C9053
:101D00008000212C908591212C9086A4212C9087F5
:101D1000B7212C9088CA212C9089DD212C0041020A
:101D2000D300410437060136004104360141043531
:101D300001C114013C00013900412CEC00C11DC15E
:101D400017C10B4128050041286BFF41286300C1E2
:101D50000AC10941286C0041286D0041286401C175
:101D60000D41280400C111011000C10EC10F413204
:101D7000FE00C1324330E90000004130E80041304C
:101D8000EC004330EE000000432DF9000000412D2F
:101D9000F700412DFC004127070041270601C1B68D
:101DA000432C36000000412C390041330000C1189B
:101DB000C11A412C6E00412C7700412C7B00412C34
:101DC0007A00412C7600412C7100422C6F000042B9
:101DD0002C7D0000412B6628512B4500000000009F
:101DE0000000000000000000000000004432090074
:101DF000000000482B6F0000000000000001502B85
:101E0000770000000000000000000000000000005B
:101E10000044203D02030400582184110105FF2CD9
:101E2000B1110105FF2CB6110105FF2CBB110105F5
:101E3000FF2CC0582001110205FF2CB1110205FF33
:101E40002CB6110205FF2CBB110205FF2CC043214B
:101E50009C0400404920494C6966656C696E6500C8
:101E60004921D64C6966656C696E65004921DF4C75
:101E70006966656C696E65004921E84C6966656C48
:101E8000696E65004921F14C6966656C696E650093
:101E90004221775A014221795A01602E211A00000D
:101EA0000000000000000000000000000000000032
:101EB0000000000000000000000000000000000022
:101EC000000000000000000000000000602E206202
:101ED0000000000000000000000000000000000002
:101EE00000000000000000000000000000000000F2
:101EF0000000000000000000000000000000602E54
:101F00002090000000000000000000000000000021
:101F100000000000000000000000000000000000C1
:101F200000000000000000000000000000000000B1
:101F3000602E20BE00000000000000000000000035
:101F40000000000000000000000000000000000091
:101F50000000000000000000000000000000000081
:101F60000000602E20EC00000000000000000000D7
:101F70000000000000000000000000000000000061
:101F80000000000000000000000000000000000051
:101F9000000000004321730000004121FC004121AA
:101FA0007B20412035004121A0004121C200412178
:101FB000C96356215D00000000010002000001011C
:101FC00001020100020003010302034421A1FF00FA
:101FD00001024121C4004121C8074121CFFF442013
:101FE000450000000044205E000000004120540035
:101FF0004121FA004121CB004121A80041204400A9
:1020000041215C05C13D42202000004121C6004124
:1020100021CD014120190045203803FF0001024570
:10202000205504FF01020350214C00000000000075
:10203000000000000000000000004421D00000006B
:102040000041201A014121B9034121D50042217CE0
:102050000000422036000041214A634121490141EC
:1020600021AB634121AA014120520141202A0341B1
:1020700021C5004121A9FF4121CE004121D40141C8
:10208000202B064121CC064121CA004120340041C9
:102090002176004120290041205301412148014877
:1020A00021BAFFFF00000000000048202CFFFF00C5
:1020B000000000000044205A000000004221A5005A
:1020C00000412022004121A7FFE00C02608201595B
:1020D0000154000100540262041844312C00000035
:1020E0000041312A0041312B0041321700413218A2
:1020F0000042321500004131C2FF4131C104C1BE6E
:102100004131BF00609628BB0000000000000000C5
:1021100000000000000000000000000000000000BF
:1021200000000000000000000000000000000000AF
:10213000000000000000000000000000000000009F
:10214000000000000000000000000000000000008F
:10215000000000000000000000000000000000007F
:10216000000000000000000000000000000000006F
:10217000000000000000000000000000000000005F
:10218000000000000000000000000000000000004F
:1021900000000000000000000000000000004131CD
:1021A0003B00413137004131381041313A00413173
:1021B000390041313600422AB60000603C2A7601DF
:1021C00001040002010700030108000401010005E9
:1021D00001010006020003070100000802000009D7
:1021E0000200000A0163000B0101000C010A000D4E
:1021F0000103000E010000000000004126F4006110
:102200000B2596000000FFFFFF808080FF0000008C
:10221000FF000000FFFF2000FF500000FFFFFF0055
:10222000FF0060600000A0000060600000FFFFE0B1
:10223000FFFF5FFFFFFFFFFFFFFFFFFF88888800B2
:102240000000FFB7DDFF00888C0044FFCCCCFF000E
:1022500000880000FFC8B4FF5511A42D00FFDDAABF
:10226000FF8800BB5500FFEE99FFBB00886600FFAA
:10227000FFBBFFFF00888800EEFFBBBBFF00668846
:1022800000CCFF9977FF0022770099FF9900FF00AB
:10229000008800BBFFEE00FF99008844AAFFEE0013
:1022A000FFCC00886699FFFF00FFFF008888CCEE16
:1022B000FF00BBFF007799CCDDFF0066FF0033779E
:1022C000CCCCFF0000FF000088CCBBFF5500FF22F4
:1022D0000088D1BBFF7700FF3A0088E8CCFF990067
:1022E000FF550088F0BBFFCC00FF660077FFB3FF0F
:1022F000FF00FF770077000505050000FF7800006C
:10230000FF780078FF7878FFFF78FFFF00784C2592
:102310008A0A00030B00030500035100034626A1AF
:1023200001FF0000000055257403000306000307A9
:1023300000030400030500030800030900034C2602
:10234000E80C60030A000305FF0305FF034C26F5B4
:102350000D0003520003030003520003603C26AC4F
:102360000300005300002500000000002B00002E99
:1023700000005400000000000800005500000500A7
:102380000000000056000001FF00570000000000A0
:102390004F000058000000FF0000000041314200E3
:1023A000413145004131460041314700413144004F
:1023B000413143004B2EBD00000000000000000032
:1023C0000000604D2954FF000000FFFF00000A02DA
:1023D00000FFFF000000FF00000A010100FF0000F5
:1023E00000FFFF000A040000FFFF000000FF000ADA
:1023F00002010000FF00FFFFFFFF0A0B00FFFFFFCD
:10240000FFFF00FF000A0A01FF00FF00FF000000BD
:102410000A0401602029A4FF000000FF780000FFEB
:10242000FF000000FF000000FFFF000000FF00FFB2
:10243000FFFFFFFF00FF004129C600412953004173
:1024400029C400412951004129A3004129C5004167
:1024500029A20042315400004231560000452AEFC3
:102460000000000000452AF40000000000452AE5B5
:102470000000000000452AEA000000000000E70913
:10248000F608DFFA8046E709F208DFFA803E888224
:102490008C83E709F0A3DFFA8032E309F608DFFA5C
:1024A0008078E309F208DFFA807088828C83E30980
:1024B000F0A3DFFA806489828A83E0A3F608DFFA5A
:1024C000805889828A83E0A3F208DFFA804C80D2A8
:1024D00080FA80C680D4806980F28033801080A624
:1024E00080EA809A80A880DA80E280CA803389827C
:1024F0008A83ECFAE493A3C8C582C8CCC583CCF028
:10250000A3C8C582C8CCC583CCDFE9DEE7800D89CE
:10251000828A83E493A3F608DFF9ECFAA9F0EDFBD5
:102520002289828A83ECFAE0A3C8C582C8CCC5831D
:10253000CCF0A3C8C582C8CCC583CCDFEADEE88076
:10254000DB89828A83E493A3F208DFF980CC88F0E8
:10255000EF60010E4E60C388F0ED2402B404005019
:10256000B9F582EB2402B4040050AF232345822343
:102570009024CE73BB010689828A83E0225002E751
:1025800022BBFE02E32289828A83E49322BB010CF0
:10259000E58229F582E5833AF583E0225006E925B4
:1025A00082F8E622BBFE06E92582F8E222E58229CE
:1025B000F582E5833AF583E49322BB010989828A97
:1025C00083F8E028F022500327F722BBFE05F8E34A
:1025D00028F3228A838982F8E4932822BB010FF82A
:1025E000E58229F582E5833AF583E028F022500957
:1025F000C58229F8E58226F622BBFE09C58229F8A4
:10260000E22582F222F8EA2583F583E9932822BBAA
:10261000010689828A83F0225002F722BBFE01F371
:1026200022F8BB010DE58229F582E5833AF583E8BE
:10263000F0225006E92582C8F622BBFE05E9258274
:10264000C8F222EF8DF0A4A8F0CF8CF0A428CE8D94
:10265000F0A42EFE22BC000BBE0029EF8DF084FFFB
:10266000ADF022E4CCF875F008EF2FFFEE33FEEC6E
:1026700033FCEE9DEC984005FCEE9DFE0FD5F0E995
:10268000E4CEFD22EDF8F5F0EE8420D21CFEADF094
:1026900075F008EF2FFFED33FD4007985006D5F099
:1026A000F222C398FD0FD5F0EA22C5F0F8A3E02886
:1026B000F0C5F0F8E582158270021583E038F0224B
:1026C000A3F8E0C5F025F0F0E582158270021583CD
:1026D000E0C838F0E822BB010A89828A83E0F5F07D
:1026E000A3E022500687F009E71922BBFE07E3F5B5
:1026F000F009E3192289828A83E493F5F074019347
:1027000022BB0110E58229F582E5833AF583E0F5E5
:10271000F0A3E0225009E92582F886F008E622BB02
:10272000FE0AE92582F8E2F5F008E222E5832AF5BF
:1027300083E993F5F0A3E99322BB010DC58229C576
:1027400082C5833AC5830226AA5011C58229F8089A
:10275000E5F026F618F5F0E58236F622BBFE11C547
:102760008229F808E225F0F5F0F218E23582F2222B
:10277000F8E58229F582E5832AF58374019325F033
:10278000F5F0E4933822BB010A89828A83F0E5F0F0
:10279000A3F0225006F709A7F01922BBFE06F3E5C5
:1027A000F009F31922EF2BFFEE3AFEED39FDEC387C
:1027B000FC22E88FF0A4CC8BF0A42CFCE98EF0A4D2
:1027C0002CFC8AF0EDA42CFCEA8EF0A4CDA8F08BB2
:1027D000F0A42DCC3825F0FDE98FF0A42CCD35F0F8
:1027E000FCEB8EF0A4FEA9F0EB8FF0A4CFC5F02E89
:1027F000CD39FEE43CFCEAA42DCE35F0FDE43CFCF2
:102800002275F008758200EF2FFFEE33FECD33CD39
:10281000CC33CCC58233C5829BED9AEC99E5829886
:10282000400CF582EE9BFEED9AFDEC99FC0FD5F085
:10283000D6E4CEFBE4CDFAE4CCF9A88222B800C1FC
:10284000B90059BA002DEC8BF084CFCECDFCE5F069
:10285000CBF97818EF2FFFEE33FEED33FDEC33FCB0
:10286000EB33FB10D703994004EB99FB0FD8E5E459
:10287000F9FA227818EF2FFFEE33FEED33FDEC333B
:10288000FCC933C910D7059BE99A4007EC9BFCE9CA
:102890009AF90FD8E0E4C9FAE4CCFB2275F010EF06
:1028A0002FFFEE33FEED33FDCC33CCC833C810D749
:1028B000079BEC9AE899400AED9BFDEC9AFCE8999D
:1028C000F80FD5F0DAE4CDFBE4CCFAE4C8F922EF56
:1028D0005BFFEE5AFEED59FDEC58FC22C3E49FFF6E
:1028E000E49EFEE49DFDE49CFC22EB9FF5F0EA9E55
:1028F00042F0E99D42F0E89C45F022E8600FECC30D
:1029000013FCED13FDEE13FEEF13FFD8F122E86088
:102910000FEFC333FFEE33FEED33FDEC33FCD8F1A4
:1029200022BB010789828A830229735005E9F802D4
:102930002B36BBFE05E9F8022B4222E0FCA3E0FDAA
:10294000A3E0FEA3E0FF22E493FC740193FD740274
:1029500093FE740393FF22E0F8A3E0F9A3E0FAA347
:10296000E0FB22E493F8740193F9740293FA740380
:1029700093FB22ECF0A3EDF0A3EEF0A3EFF022A87E
:10298000828583F0D083D08212299612299612294B
:1029900096122996E473E493A3C583C5F0C583C852
:1029A000C582C8F0A3C583C5F0C583C8C582C82247
:1029B000A42582F582E5F03583F58322E0FBA3E0D0
:1029C000FAA3E0F922F8E0FBA3A3E0F925F0F0E593
:1029D00082158270021583E0FA38F022EBF0A3EA48
:1029E000F0A3E9F022BB010789828A830229BC5047
:1029F00005E9F8022B4EBBFE05E9F8022B6089823F
:102A00008A83022B72BB011A89828A83D0F0D0E0BC
:102A1000F8D0E0F9D0E0FAD0E0FBE8C0E0C0F00286
:102A200029DC5016E9F8D083D082D0E0F9D0E0FA62
:102A3000D0E0FBC082C083022B57BBFE16E9F8D062
:102A400083D082D0E0F9D0E0FAD0E0FBC082C0832E
:102A5000022B6922BB010DE58229F582E5833AF557
:102A6000830229BC5007E92582F8022B4EBBFE07E2
:102A7000E92582F8022B60E58229F582E5833AF5A3
:102A800083022B72BB0120E58229F582E5833AF5AA
:102A900083D0F0D0E0F8D0E0F9D0E0FAD0E0FBE865
:102AA000C0E0C0F00229DC5018E92582F8D083D0BC
:102AB00082D0E0F9D0E0FAD0E0FBC082C083022BE4
:102AC00057BBFE18E92582F8D083D082D0E0F9D038
:102AD000E0FAD0E0FBC082C083022B6922D083D011
:102AE00082F8E4937012740193700DA3A393F874A9
:102AF0000193F5828883E4737402936860EFA3A363
:102B0000A380DF8A838982E473EC8EF0A4CCC5F0C5
:102B1000CCCDF8EFA4CEC5F02DFDE43CFCE8A42E0E
:102B2000C8C5F03DFDE43CFCEFA4FFE5F028FEE461
:102B30003DFDE43CFC22ECF608EDF608EEF608EF6D
:102B4000F622ECF208EDF208EEF208EFF222E6FBD4
:102B500008E6FA08E6F922EBF608EAF608E9F622B2
:102B6000E2FB08E2FA08E2F922EBF208EAF208E9ED
:102B7000F222E493FB740193FA740293F922901DFC
:102B80001EE47E0193700122A3FF543F30E50954F7
:102B90001FFEE493A360010ECF54E0B4E03AEFFAD5
:102BA000EEF9E493FBA3E493FEA3E493FFA3E49381
:102BB000FDC083C082C001C002C006C00712197BDD
:102BC000D007D006D002D001D082D083A30FEF70FF
:102BD000010EDADAD9D880A954C025E0601050057A
:102BE000A3DFFD809CA3A3A3DFFDDEFB8093A3A353
:102BF000DFFD808D75818C75FF03759E0212192093
:102C00000238D30218C8901D1EE47E019360F4A31D
:102C1000FF543F30E509541FFEE493A360010ECF3B
:102C200054E0B4E00EEFFAEEF9A3A3A3A3DAFDD9C2
:102C3000FB80D654C025E0604B5026E493A3F854A3
:102C400007240CC8C333C4540F4420C8834004F481
:102C500056800146F6DFE480B001020408102040EF
:102C600080E493A3FAE493A3F8E493A3C8C582C8CD
:102C7000CAC583CAF0A3C8C582C8CAC583CADFE96A
:102C8000DEE78085E493A3F8E493A34003F6800194
:102C9000F208DFF4022C095E86725A7326337085BF
:102CA00059257A5E86725A732670608E8559257A08
:102CB000005E2685598E5E2685598E5E2685598E44
:102CC0005E2685598E1C321C281C051C0A1C231CE0
:102CD000001C371C3C1BF61BFB00000000FFFFFF25
:102CE000FF000000001A071A0C1A111A161A1B1AF4
:102CF000201A2A1A39A91D5A2D5761766520342EBB
:102D000032340019AD19C119CB19D019D519DF1BEF
:102D10006A1B6F1B741B791C691C6E1C731CA5003D
:102D2000000000534B53911A841A891AB11AB61C29
:102D30005A1C5F1C7D1C911CA01C9B000000001CE9
:102D4000F01CF51A611BB01C551CAA1CDCE4F97DB3
:102D50000CAC0109EC902CF793FC0FEFAA06700164
:102D60000E14F5828A83ECF0DDE77F03228F828EDA
:102D700083E4F0A37404B1807418B180A3E4F0225A
:102D8000F08F828E83A3A3221233B1121A8E1219EE
:102D9000E912195D9002D4E064017F0060027F01B6
:102DA000121A48121A4D1219BCB1E91257947A023C
:102DB00079D712196CF1DFFE4FFDA3E0FC4DFDA3A6
:102DC000E0FB4D600BEE5FFFEC5FFFEB5FF470022A
:102DD000B1FD90121BE0FF540324D7F582E43402C6
:102DE000F583E06F9002D2F022E49030BDF0FBFA60
:102DF000F9F1F0E4900434F09030B8F022E4FFD11F
:102E000061EF603AD17BD13F9002D7E0C394C040DC
:102E1000F37B017A0279D9D13FF1DF5FFFA3E05F55
:102E2000FFA3E05FF460EA90121DE030E0047F0150
:102E3000D161E490121BF0D17BE0FD121971229058
:102E4000045831DCC226E4FFD161BF010990045867
:102E500031BCD18292267F01D161A22622EFF07F80
:102E600001EF600A123B4FE4FD123B61800A121A27
:102E70009D123E3BE433FF227F01227B017A0279DF
:102E8000D722902E44F1F5E9F0902E4A317F0000D0
:102E90000001902E4E7401F0F5FFE5D554C0700589
:102EA000123E335002C322E4F5FF53967F75FF01B3
:102EB00075D50412467675FF0143D508E4F5FF5336
:102EC00094FBF5FF53847FF5FF7598FF902E48E53E
:102ED000F4F075F49C75FF01A3E5E4F075E4257B3F
:102EE000017A2E794E125579902E4EE064016002DF
:102EF000E1A4F5FF902E477414F0902E4AF1D37898
:102F000001310E902E4A3173E5A730E1FB43A70251
:102F1000902E4AF1D3E5A730E005E47B018002E47E
:102F2000FBFAF9F8EF4BFFEE4AFEED49FDEC48FCE9
:102F3000902E4A3173902E47E014F070BD902E4AC7
:102F4000F1D3781011FB7B6D7A4E79C67841122748
:102F5000B2EF2439FFEE34301249D2FCE4FBFA79A7
:102F600001F8113DEE547FFEE4FDFC124E53902E0D
:102F70004AF1D3EB6FFFEA6EFEE8CDEFCDCCEECC9D
:102F8000ECFF902E44F1E7EF12260F902E44F1E76C
:102F9000900001ED12262190120FE030E606E4F5D4
:102FA000FF75968075FF01E4F5D5902E48E0F5F4A5
:102FB00075FF01A3E0F5E4124E60902E4EE0B401DF
:102FC00003D38001C32225E025E02401F582E43407
:102FD00012F583E0FCA3E0FDA3E0FEA3E0FF229056
:102FE00002D7E0FFA3E022E0FBA3E0FAA3E0F9228E
:102FF0009030B921DCEBF0A3EAF0A32275FF027553
:10300000E40475E40175E4022275FF0275E404E44A
:10301000F5E42275FF02E5E430E10675E40675E4A7
:10302000032290315F12297390315F12293B51B214
:10303000903163E06F603511133116EF6004B167B2
:1030400080F751193159902CE2E0FF7178600A90B5
:10305000315F12293B7810117390315F116E9031FE
:103060005FB182903163E0FF51A0D322C3221229C5
:103070003B78081228FBE4E5C820E2FB8FEB227FB7
:103080000151A69032ED7401F09032EDE0602EB166
:1030900088310A9032EDEFF0512511F9902CE0EFD4
:1030A000F051259032EDE05401D1E060DCA3E0F472
:1030B00060D7EF30E7D3E49032EDF080CC31597F28
:1030C0009F1177310A902CE13108902CE63108905D
:1030D0002CE7EFF051A2902CDFE0F4601BA3E0F4AA
:1030E0006016902CE6E0FD541F240FA3F0EDC413EE
:1030F00054074480902CE6F02231597FD711777F16
:10310000FF1177310E902CDFEFF07FFF1177E5C8CC
:1031100020E2FBAFEB227F0151A6302714B18831AA
:103120000A9032EFEFF051259032EFE020E002C23A
:103130002730271711F9902CE0EFD1E0600BA3E0C6
:10314000F46006EF30E702C2275125E4FF51A6A242
:1031500027E433FF227F0151A6902CE4E0122ADD00
:10316000317C04318414318915318E17319E303110
:10317000A33431A83631AD37000031965367EF855F
:103180006780802F5368EF80085368DF800353689F
:103190007F856890801D5369DF8569A08015536A1B
:1031A000FE800D536AEF8008536ABF8003536A7F25
:1031B000856AB07F0CDFFE22902F2C122973902F8E
:1031C000301229DC11133116EF6004B16780F7511A
:1031D000193159902CE2E0FF7178600A902F2C127F
:1031E000293B78101173902F2C116E902F2C1229DF
:1031F0003BE4801B902F33D1F26018902F301229BE
:10320000BCEA494B6007902F30D1E88001E4FF1100
:103210007780E15125E4FF41A67F0151A6D22731F5
:10322000597F061177F1A8EF70FB902CE6E0F4606F
:103230000A9032EC7406F0D1AC70FC902CE4E012F1
:103240002ADD325E04326614326B1532701732801A
:1032500030328534328A36328F3700003278436715
:1032600010856780802F43681080084368208003A2
:10327000436880856890801D4369208569A080151A
:10328000436A01800D436A108008436A408003430B
:103290006A80856AB09032EC740CF0D1AC70FC227C
:1032A00011775125E4FFEFB4010443FE202253FEC1
:1032B000DF2290315A12297311133116EF6004B1D5
:1032C0006780F77170600A90315A12293B781011AB
:1032D0007390315A116E90315AB182310A90315E39
:1032E000EFF051A290315EE0FF2211133116EF6032
:1032F00004B16780F7511931597F0111777F0311AC
:10330000775125E4FF809F902F35122973902F3934
:103310001229DC11133116EF6004B16780F7717068
:10332000600A902F3512293B78101173902F3511B8
:103330006E902F35B182902F3CD1F26013310A90FC
:103340002F391229BCEF12260F902F3AF1AE80E6EA
:103350005125E4FF41A6902CDFE020E01231557F9B
:103360003D11777F2A11777F8011777FA651A022A8
:103370007F0151A631597F031177902CE5E064025B
:10338000229032EEEFF0902CEDE064027022315585
:103390009032EEE07FAB60027FB911775125903219
:1033A000EEE0902CECF070047F1EDFFEE4FF51A6EF
:1033B000227A2C79E47F031257A07A2C79ED7F08CA
:1033C000F1F07A2C79EA7D027F09121B1F7B017ACA
:1033D0002C79E87D027F0B121B1F902CE8E0FEA3E6
:1033E000E0FF4E6006BEFF1BBFFF18902CEDE024EF
:1033F000FD6003047004D1B48009902CE8E4F0A3CC
:103400007440F0902CEDE024FD6003047008902CD3
:10341000E57403F08006902CE57402F0902CE4E053
:10342000122ADD343F04344A14345215345A173406
:103430007030347834348036348837000034657521
:10344000FF015363EF8563FD804775FF015364EF10
:10345000800E75FF015364DF800675FF0153647FA2
:103460008564C9802C75FF015365DF8565CA80219D
:1034700075FF015366FE801675FF015366EF800EDF
:1034800075FF015366BF800675FF0153667F856631
:10349000CB51257F11B17CE4FF7181117F902CE22B
:1034A0007402F0902CE6E0247F6009047015B18E60
:1034B000740A80067156B18E7458F0902CE574032E
:1034C000F0D1B4902CE7E0F46002A165902CEAE022
:1034D000FEA3E0FF64104E7006902CE7740EF0EF30
:1034E00064204E7006902CE7740FF0EF64404E702D
:1034F00006902CE77410F0EF64804E7006902CE775
:103500007411F0E4B5070AEEB40106902CE77412CA
:10351000F0E4B5070AEEB40206902CE77413F0E469
:10352000B5070AEEB40406902CE77414F0E4B5076E
:103530000AEEB40806902CE77415F0E4B5070AEE1D
:10354000B41006902CE77416F0E4B5070AEEB42028
:1035500006902CE77417F0E4B5070AEEB440069025
:103560002CE77418F041EAE53730E20FE53720E543
:103570000AE53730E0057F01122E6122EF4420F585
:10358000FE2212293BE4017731597F0501777F1034
:10359000B17C902CE222D1991229DC902E3D122987
:1035A000BC902E40F1F8902E3912293BF1225002A6
:1035B000C159902CE9E024FFFF902CE8E034FFFE95
:1035C000E4FCFD902E391229571228CF902E42F19B
:1035D000B56037D1A3C3902CE9E09FFF902CE8E0C1
:1035E0009EFE902E42F0A3EFF0902E40125896507F
:1035F00006A3ECF0A3EDF0D15B1229BCE94A60040C
:10360000D1A380487E007F008042902E40E0FEA340
:10361000E0FF4E6042902CE8E0FCA3E0FDD3EF9D7C
:10362000EE9C400A902E42ECF0A3EDF0800D902E1F
:1036300040E0FFA3E0A3CFF0A3EFF0D15B1229BCE1
:10364000E94A6004D1A380047E007F00902E3EEE04
:103650008FF01226AA80B3D322C322902E3D1229C6
:10366000BC902E42E0FFA3E0902F33CFF0A3EFF009
:10367000902E3912293B31B8902E42E0FEA3E0FF94
:10368000C3902E41E09FF0902E40E09EF0902E39A6
:10369000122957E4FCFD1227A5902E3912297390A8
:1036A0002E3D22902E42E0FEA3E0FF229032ECE07D
:1036B00014F0E022902CE87401F0A3E4F02211133E
:1036C0003116EF6004B16780F722E075F002A424A0
:1036D00081F9740F35F07B02FEAF01E4FCFD41B2CD
:1036E000F0902CDFE0FFF422E475F0011229C5020E
:1036F000257474FFF5F01226C045F022FEAF017B61
:10370000007A0079829030C37404F09030C0F1BC2C
:10371000C0079030C01229BC9030C31257D5D007D3
:103720006107902AF9122973902AFD1229DCE4908E
:103730002B20F0D3902B01E0941E902B00E09400FE
:103740004001227B017A2B7902902B00E0FFA3E05D
:10375000902F3CCFF0A3EFF0902AF912293B71078C
:10376000902AFD1229BCE94A600F902B20E0F582D7
:1037700075830012258DFF80027F00902B20E024AE
:1037800002F582E4342BF583E06F6002C322902BB4
:1037900020E004FFF0D3902B01E09F902B00E094F9
:1037A0000050BD22E4FF41A6E5C85404FF22E475A1
:1037B000F0010226AAEEF0A3EFF04E221229DCE47B
:1037C000FCFD2290304AF1BCC00790304A1229BC5F
:1037D00090304D12583ED007A196903051F1BCC0A8
:1037E000079030511229BC903054F1F8D007E122F3
:1037F0007D01121B1F7B0122E0FFA3E0902B00CF75
:10380000F0A3EFF02290045212573FF012538A6057
:10381000071241285002C322900452E0B4040A1156
:103820006C9004527403F08026900452E06405709A
:1038300013116C90121DE030E5047F1F80027F732E
:10384000F1F1800B900453E0FB7D01E4FF117390D4
:103850000452E09002D3F0900454E0901222F0124F
:1038600019A39002DEEEF0A3EFF0D322A3E0FB7DDC
:10387000017F01EB600875FF0153CDFD800675FFE8
:103880000143CD02ED600553FBDF800343FB20EFD6
:10389000600775FF0243E1402275FF0253E1BF223A
:1038A0007B02116F90121DE030E5047F1F80027FC4
:1038B00072F1F17F0143FB1075FF0243E640EF60B8
:1038C0000D75FF02E5E120E7FB43FB0D800343FBA1
:1038D0000E80FE75FF0275E404E4F5E4C21375FF83
:1038E00002901215E0603AE5E6540364017032126A
:1038F0001A75D1D8401F901222E0600DE014F070CC
:1039000008121892E4901215F0901215E07002213E
:103910009511A02195121892D213E4901215F080FF
:10392000741218921253E89002D4EFF0901200E053
:10393000B47A14901214E0B49C0D9002D4E0FF64A9
:10394000056004EFB4032EE49002DDF09002DDE0A8
:10395000FFC394405013E42FF582E43412F583E45E
:10396000F09002DDE004F080E3901200747AF090B1
:103970001214749CF0121B247A1279107F011257D2
:10398000A07A1279117F211237F07A1279127D0113
:103990007F22121B1F121A7A1253E8121A70900219
:1039A000D4EFF01219F8121A6B9002D4E0FFB406AB
:1039B00002800C3013047F0280059002D4E0FF12D5
:1039C0001BBFEF24FFB3923275FF0253E6BF900294
:1039D000D4E064016005E4901215F01240AF121AB1
:1039E0007F122D88901215E0700C203209121BC432
:1039F000125881121A2F90121DE030E0028003301D
:103A000013057F01122E61D2AF3013031219FD305E
:103A1000327912195812198F121BC9121B1A40F24F
:103A20009002D3E06041121A98EF70051257E840F7
:103A300036E53670FCE53720E502D13B121967EF19
:103A400070FA1253AD500512539950057F0112338D
:103A5000819002D3E0B40204E4FF80099002D3E035
:103A6000B403047F0111B5121A93E53730E1A312B4
:103A70004FB44002E4F0E53720E506714F7D017157
:103A8000619002DD71521258A9808712403F1240A6
:103A90000D5003122DFD9002D3E0605D902805E0EB
:103AA0007057121A98EF70051257E8404CE53670BF
:103AB000FCE53720E50990121DE020E002D13B1221
:103AC0001967EF70FA1253AD500512539950057FE4
:103AD000011233819002D3E0B40203E48018900213
:103AE000D3E0B403047F01800E9002D3E0B4050953
:103AF0009012157401F0FF11B512195812198F1296
:103B00001BCE9002D1E07005121A93801512407BF3
:103B1000FF9002D1E0FEC3EF9EC394014002E4F0A7
:103B2000D2AD121807E53730E11A124FB44002E463
:103B3000F0E53720E506714F7D0171619002DD717E
:103B4000521258A9121A5C12536412409A418B9077
:103B500002D5E075F0AA9002E01229B0AF82AE83E0
:103B600022900455EEF0A3EFF0E536706CD12B50A7
:103B700004C22E71DA900455E0FEA3E08E31F532D6
:103B8000AE31AF327DAA12550AE4F5FF75D901F5C1
:103B900030E5375421602BE53730E504E4FFF16769
:103BA000E4900457F0900457E004F0124686EF606A
:103BB00009900457E0C3941040EB7F02121BBA53E4
:103BC00037DEF1F75005E004FF80027F00F1E2D21A
:103BD0002E71DAD2EBA21292ED229032F0E5F4F0DF
:103BE000E0547FF5F47F827E0012478512448B50AB
:103BF00005E5FC20E6F6302E089032F0E04480F532
:103C0000F412478112448B5005E5FC20E6F675FF5F
:103C100001E5D520E702C322E5F4D330E601C32253
:103C200090044D1229DCC2EBE5366002C10DE53788
:103C300030E202C322A2ED9212C2EDD1162404F9A1
:103C4000E43AFA1226D654606042D1162403D124F5
:103C500020E1399030BDE064046031D11624BBD13D
:103C600024D11524E21257B59030BC740FF09004A3
:103C70004D1229BC122FF012434512581E9030BD30
:103C80007405F012420AA21292EDD322F1A7540F4A
:103C9000FFBF0111E924EED124700A90121CE090BC
:103CA0000450F0800E90044D1229BC1219EE9004BD
:103CB00050EFF0E53720E05ED13340057F01122E52
:103CC000619004507A0479511245A8E433D1152447
:103CD000EE1258881225BAEF7002803675FF01AFD8
:103CE000E4900450125808E0FE900451E0D39E4046
:103CF00002801590044DD11EFDF1A7FB1251ED90ED
:103D00000451EFF0E0FF7006D2EBD200A1FFEFB458
:103D10000204D2EBA1FFD1162404F9E43AFA1226E8
:103D2000D65460600ED1162403D12420E105E4901E
:103D300030BDF0D1335004C22E71DAF1B4E5D12098
:103D4000E0FBE4F530C213D1162408F9E43ACFE9D8
:103D5000CFF5318F32D11624B1D124F538AE3112DE
:103D60005540D11624B1D124D11524E1D1242FFFFF
:103D7000E433FEEF2401FFE43EFE90044DD11ED358
:103D8000124E3D500574011225BAD11624B2F9E441
:103D90003A8B40F5418942D11624E1D124F543D133
:103DA000162404F9E43AFA1226D65407900436F0A1
:103DB000753608D11624B2F9E43AFA125534D11600
:103DC00024E1D124FFAD381250377B01E4FDFF120E
:103DD00054D612502F440CF5D2900450E0FF9004BA
:103DE0004DD11E2418FBE433FA7D03125290D116F4
:103DF00024041257AA900450E0FD1241E64006A2A6
:103E00001292EDC322A21292EDD2EBD322A2129211
:103E1000EDD2EBC322FF90044D1229BCE9221229F6
:103E2000BCE924B9F9E43AFA022574C2EBA2ED9296
:103E300012C2EDE5F4C330E701D322E5367020D19C
:103E40002B5004C22E71DAF183F1B4E5D120E0FBEE
:103E50004337205337FEE4F530A21292EDD322C34C
:103E600022900465EFF0C22F1255D5D21B90046545
:103E7000E0903228F0D21CA3E4F0A37434F0124492
:103E8000CDE4900466F0D1335038900466E070328F
:103E9000E5F754C060F0F14CF15FBF5511F15F9050
:103EA000121BE06F90046670147402F080D89004C6
:103EB00066E0B454057433F080CC9004667401F06D
:103EC00080C4900466E0B40206C22E71DA8000124B
:103ED00044C0900466E0FF225337FEE53730E50426
:103EE0007F01F167124686EF70FA7F02121BBAE477
:103EF000900468F0900468E0FFC394035037D161E8
:103F0000900467EFF0BF0203A38012900467E0B44F
:103F10003318A3E0FFD161BF0210900468E0901253
:103F20001CF09004677401F0800BE4900467F0A328
:103F3000E004F080BF900467E0700AD1335004C2FF
:103F40002E71DAF183900467E024FF22E5F720E088
:103F500008E5F754C070F5FF2243F701AFF922F1ED
:103F60004C900466EFF02275FF01E5D530E602C300
:103F700022E4F5FF439A80EF124E35E4F5FF539AA1
:103F80007FD322F18A7F08021BBAE5FA30E1FB7584
:103F9000FC8075FF0153D5EFE4F5FC75FC4012473A
:103FA00057E5FC20E6FB2290044D1229BC02257443
:103FB000C22E71DAE4F5FFE5D154FE4402F5D122B8
:103FC000F1B0E5D120E0FBE4F5FF75D901F1F75040
:103FD00005E004FF80027F00F1E2D22E71DAE4F501
:103FE0003022F16743FA04E4F5FF53D1FD43D101D8
:103FF0002275FF028FE32290121CE02401FFE433BC
:10400000FEC3EF9403EE648094802280E490121B40
:10401000E07011122FDF4FFFA3E04FFFA3E04F70BE
:1040200003D38001C3229002D2E064AA2411FFF0DE
:1040300022AE071126EE04FEEF8EF084AFF02230A0
:10404000250C902805E07006FF121A02C2251153B4
:104050000219F3301324117DFF900449E0FEEFC3F1
:104060009E400AEF9ED394024010C213229004494E
:10407000E0F42FD394014002C21322C2AD902A244F
:10408000E0A3E0229002DBE0FCA3E04C700A900287
:10409000DBEEF0A3EFF0D322C3229002DBE0FEA31D
:1040A000E0FF4E6009CAEECAC9EFC9122B032275A0
:1040B000FF02D2ADD2BD75FF02758E71757709759D
:1040C000FF02E58E546F4480F58E22C0E0C0F0C040
:1040D00083C082C0D075D008C0FF75FF02E58E3066
:1040E000E42975FF02E58E54EF4410F58E90000030
:1040F000E004F0E57730E0020511E577700B7577A5
:1041000009902A241237AF8002157775FF02E585E2
:1041100030E40875FF024385100578D0FFD0D0D079
:1041200082D083D0F0D0E032A21322123E3350046A
:10413000313C4003301303D38001C322E5F754E040
:1041400024FF22AF36EFC36001D322EFC3940E5099
:1041500005900437EFF022E539540FFF22E539C30B
:1041600094F0501F5339F03186FE740FC39F400501
:10417000EE940E400543390D8003EF4239E5395482
:104180000FFF227F0022E539C4540FFEEF9018E89C
:10419000932E223186FFC3940E40027F0DEF9018BC
:1041A000CA93FF22EF30E30774332DF8E6FF227441
:1041B0003D2DF8E6FD201404EE30E00BE539C39404
:1041C000F05020F1FC8018E53C6006FDE4F53C80F1
:1041D00012E539C394F0500BE539540FFF600431F8
:1041E00093AD07AF0522CCEDCC4337015337DFCD7C
:1041F000ECCD31A4CEECCECDEECD71544004E4F53F
:1042000036225337FB123FE4D3229030BDE024FC2A
:1042100070026121147002611A147002610414703A
:1042200002612924066002613DE5366002613DC2FB
:10423000EB713E1219EE9032ACEFF0E53730E00250
:10424000613D9196EF640160057F01122E6190320D
:10425000AC7A3279ADB1A84003D2EB229032AC12E5
:104260005808E0FE9032ADE0D39E400280229030AC
:10427000BCE0640F70269030B9123E1EFD9030B93C
:10428000123FAAFB1251ED9032ADEFF0E0FF700546
:10429000D2EBD20022EFB40203D2EB2212504471CF
:1042A0003EE924E2123E249030B9714CF9E43AFA26
:1042B0001226D6FDACF0E4FB124FDD9032ACE0FDEF
:1042C000E4FFFE31E65076D2EB9030BD7402F0127E
:1042D00051E57E00E4FCFD7BD07A127913F81227B9
:1042E000B2E47BE87A03F9F812184EAB07AA0690FD
:1042F00032ACE0FF7D031252907E537F4B7D147CE5
:10430000000219B7E53720E50AE53730E0057F01FF
:10431000122E619030BD7403F0229030BD7401F014
:10432000221219B2713E021AA2D200713E12581E18
:104330007145122FF0E49030BDF01219C622903072
:10434000B90229BCF07B007A00790022FF1229BC57
:10435000E9240422900461EDF0A3EFF07F01121B29
:10436000BA900461E0FFA3E0FBE4903059F07D02D5
:10437000717650EDD32290305612573FF090305C5A
:104380007401F0C22DF181918B5005E5FC20E6F718
:104390009196BF0108E4F5FC75FC4080079196BF3B
:1043A0000202D322F17A903057E0FF1255AB75FF2D
:1043B0000153D5DF53FAFB903056E0FF123F679070
:1043C0003057E0903056B40811124BCE124E2DFEED
:1043D000A3E024521249CFFC8004E0122FC6124BF6
:1043E000F4903058E0FF1255F675FF0175FF037524
:1043F0009B04F18175FC42E5FC20E104918B40F4C3
:10440000903059E0F075FF03E59B20E704918B4065
:10441000F4E59B20E70D75FF03759B1F123F8AD2C1
:104420002D804E9184125579903057E0FD90120FF7
:10443000E05D701D903056E0FF918412482B901281
:104440000FE0FF903057E0FEEF4E90120FF0124B4E
:1044500018F1D87B017A30795AF1C2500FC39030ED
:104460005BE0942090305AE0940340E79184124F2F
:1044700011D17D302D02617D90305CE0B40103D319
:104480008001C3227B017A30795C2275FF03E591BC
:10449000C330E701D3227FFAB180E5FC30E6049116
:1044A0008B40F7E5FC30E6037F032275FF01E5D57D
:1044B00030E6037F0222E5D57F0030E7027F01224C
:1044C000C21BE4903228F0C21CA3F0A3F075FF01D8
:1044D000E5D520E702C322C22F1255D5201B02A129
:1044E0007053F4DF903228E0FF123F6775FF0143FD
:1044F000D810301C0543F440800353F4BFE4F5FFAB
:1045000053F5F0903229E0FAA3E0FBEA42F5EBF52F
:10451000F6D22F1255D5B17EE4F5FFE59320E604DF
:10452000918B40F4301C55E5F430E3047D28801075
:10453000E5F430E2047D288007E5F430E1027D28CF
:10454000F1577F28B180918B40FC7F78B180918BAF
:10455000502AF17350F81255FCEFC39D50F0F173DF
:1045600050ECE5F720E5E7C22F1255D5F15780DE74
:1045700053F4BFF1F4400543F420F17AD3227FC80D
:104580007E00B18B75FF034391802275FF03D3EF4B
:104590009402EE9400400874FE2FFF74FF3EFEEF7D
:1045A000F592EE540FF59122E0FF7B019031DDEFA3
:1045B000F0A3122FF5E9F075FF019196EF64016009
:1045C00002C322E5F430E602C3227FE87E03B18B0A
:1045D000B184F15E400122C22E123BDA9031DDE05F
:1045E000FF123F6753F4DFD22E123BDA7F787E0052
:1045F000D13375FF0153E4BFE5E430E7FB125623E6
:104600007F8A1258C230E6099031DE122FE7E4802B
:104610000B75FF019031DE122FE7E5D912260F75D9
:10462000FF0143E440F1F4400343F420F15E400114
:1046300022D322CDEFCDCCEECCF1B6AB94EF4B1222
:104640005901CBEFCBFAE59130E71DF1B9A994E917
:10465000F582EF4582FFEB2DF582EA3CF583C3EF4F
:104660009582E5F0958340DEE59120E708CEECCE1B
:10467000CFEDCFD179227F3FFEB18BB18475FF039F
:10468000E59120E7FB22E49031D5F0A304F0E4901B
:1046900031D8F0E5FA30E1FB75FF01E5D530E703ED
:1046A0007F0022E4F5FF75E508F17AE5D530E61ADA
:1046B00075FF019031D7E5DAF0E4F5DA75FF01E531
:1046C000D630E3FB9031D87401F075FF03759B047D
:1046D00075FC4175FF03E59B30E7FBE4FB75FF03C9
:1046E0008B95EB122FC6124BF40BEBB403EF75FF57
:1046F00003759580E4F5FF758EC8F1D875FF0153F9
:10470000D5FBF1577F14B180D17D75FF0143D504EE
:104710009031D8E07006F157B17ED17D7B017A31BE
:1047200079D6124F119031D6E09031D57006E04421
:1047300004FF8002E0FF9031D5EFF090120EE0B45C
:10474000010675FF0143D81075FF019031D7E0F5E0
:10475000DA9031D5E0FF2275FF03E4F59122E5F709
:1047600030E50EE5F754C07004918B40F1F157C36A
:1047700022D32275FF01E5E4332275FF0153D8EF00
:10478000227FE87E03F189A1849031CD1258CB7A43
:104790003179CFF1C250149031CFE0FEA3E0FF9009
:1047A00031CEE09F9031CDE09E400A9031CDE0FEC9
:1047B000A3E0FFB18B2275FF03AF93EF75F010A458
:1047C000FF22F1B6AD94EF4D1259018FF0122786FA
:1047D000E591C330E701D322E4F5FF75C2E17F1E06
:1047E0001258C230E707E4F5FF75C2A122E4F5FFD5
:1047F00075C2812290120EE0D3940122900437E01A
:10480000FDFFC3740E124824EFC4F8540FC868FFAC
:10481000EEC454F048FEE53954F0C3D13D7F00505A
:1048200002AF05229FFFE49400FE229031D9EDF003
:10483000901211E0FEF46006A3E0FDB4FF0C90318D
:10484000DB7418F0A37413F080089031DBEEF0A352
:10485000EDF012257464016002218A9031D9E0FEE6
:1048600064086004EEB404089031DA7428F080061D
:104870009031DA743AF0EF122FC61228DCE4318B53
:10488000EF24D8FFEE343FFEED3493FDEC3416FCFC
:104890007B007A807903780012184ED1539031DC76
:1048A000E0FF9031DBE0C31124E4FCFD1227B2EC01
:1048B000C0E0EDC0E0EEC0E0EFC0E09031DCE0FF32
:1048C000E4FCFDFE318BD0E0FBD0E0FAD0E0F9D083
:1048D000E0F8EB2FFBEA3EFAE93DF9E83CF89031CD
:1048E000DAE0FFE4FCFDFE1227B2EF2454FFEE34C1
:1048F0000B31D2FCE47BA87A16F9F812184ECBEFF4
:10490000CB9031D9E014605D14601B24FE600C2450
:10491000FC7077E4F5FF75CE318006E4F5FF75CEC7
:1049200021F5FF8BCF22E4FAE4F5FFEA2440F5CE2F
:10493000E4F5FFEAFFC37407112474F72FF58274BE
:10494000183EF583E43193C39DF5CFE4F5FFEA24E7
:1049500048F5CEE4F5FFEA9018F731932DF5CF0A2C
:10496000EAB408C422E4F5FF75CE01F5FF8BCFF55C
:10497000FF75CE0EF5FFEB25E0F5CFE4F5FF75CE24
:104980000FF5FFEB75F003A4F5CF227B64FAF9F87D
:104990000227B29325E0FDE433FCEB75F010A4FF91
:1049A000AEF0122655CDEFCDEBFFE4C313EF13228B
:1049B000FF7E04FDFCE0F8A3E0F9A3E0FAA3E0FB2E
:1049C0001227B2E47B7DFAF9F812283DEF2401FFAB
:1049D000E43EFEE43DFDE43C22902BDF122973759A
:1049E000FF0243E180123F8AB136902BF412297FF7
:1049F000002DC6C0E4F5FFF5A490120EF0A3F090D0
:104A00002BEF7402F071E3FFF595EF14601414605E
:104A10001E2402702A902BDF122FD3713A902BEBB9
:104A20008018902BE3122FD3713A902BEC800B90CF
:104A30002BE7122FD3713A902BEDE0902BF8F0D1A9
:104A400046902BF8E0700FF5FFF59675FF0175D7CE
:104A50000975F418805690120EE004F0902BEFE0E8
:104A6000D135902BF4122FD3902BF0B12AC31228FA
:104A7000EA500A902BF0122FD3A3122973902BF82F
:104A8000E0FFD171902BEEE0FFA3E0FDA22C922A73
:104A9000D1BFA3122FD3903165122973902BEFE071
:104AA000FF7140902BEFE0122FC671F471EB6002A2
:104AB00041057402F071E3F595E5F4540770179021
:104AC0002BF431B071DD902BEFE0FB71CF12297325
:104AD000EB122FC671F471EB70DB75FF03759580D7
:104AE0001247F4400343F420A22C922BB15F902B89
:104AF000F4D12DFEA3E02420FFEE344E31D2FCE4AD
:104B0000FB7A04F9F831C071DDC2299130E4F5FF78
:104B1000E5BD54F84404F5BD9012137401F07E1203
:104B20007F01E4FDEF2DF582E43EF583E0FC901279
:104B300013E02CF00DEDB412EB22902BF002297350
:104B4000903164EFF0E4A331B071DD903164E0FBAB
:104B500071CF122973901210E0FF6480606FEFC371
:104B6000947F5038EB71CFC083C082122FD3EEC038
:104B7000E0EFC0E0901210E075F004A4AEF0FBCAC4
:104B8000EECAEA3395E0F9F8D0E0FFD0E0FEC3EFDB
:104B90009BFFEE9AFEED99FDEC98802990316471AF
:104BA000CEC083C082B12A901210E0F40475F004E4
:104BB000A4FFAEF0EE3395E0FDFCEB2FFFEA3EFEE6
:104BC000E93DFDE83CFCD082D08312297322E02528
:104BD000E025E02401F582E43412F58322FC78011B
:104BE0000228FB75FF03902BEFE022902BEFE0FFF4
:104BF00014F0EF229031D112297375FF019031D159
:104C0000A3E0FDA3A3E4FFFEE4FC78101228FB8FD1
:104C1000E19031D1A3A3E0FEA3E4FFE4FDFC78081A
:104C20001228FB8FE29031D1A3A3A3E0FF8FE322F0
:104C3000902BF9122973E4F5FF75BB0575BB8575DB
:104C4000FF0175D5022029061246761247D875FF56
:104C50000143D52030290281FCE4F5FF538EF74350
:104C60008E077D04E4F5FF8DBCF5FF43B102E5B18D
:104C700030E2FBE4F5FFAFDFEFFEACDEECFBEBFF79
:104C8000ED25E024F7F582E4342BF583EEF0A3EF75
:104C9000F0E4F5FFF5FF53B1FD0DEDB40CC6902B1C
:104CA000F9122FD378091228FBA3EEF0A3EFF0E45A
:104CB000FDED25E02401F582E4342CF583E0C313F7
:104CC000FAA3E013FBB116E0C313FEA3E0132BFF1E
:104CD000EE3AFEB116B123240490120DF0EDC39408
:104CE000075019CFEDCF0DEFB117E0FEA3E0FFC3E2
:104CF000902BFEE09F902BFDE09E50B5E4F5FF75F4
:104D00008EC8F5FF90120DE0F5BCE4F5FF75BB8091
:104D100075FF01F5D522ED25E024FFF582E4342B63
:104D2000F58322EEF0A3EFF0ED22E0F8A3E0F9A383
:104D3000E0FAA3E0FB22B15553DB7F75FF0175D587
:104D4000027F1412458012467DB15543DB8075FF0A
:104D500001E4F5D52275FF01438E1075FF0122E4B1
:104D6000F5FF75933F75FF03759A40D160E4F5FF39
:104D7000759C93F5FF75A1A3F5FF758531F5FF755A
:104D80008628E5FA54304480F5FA75FF0175E74A44
:104D900075FF0275DF4975FF0143D30475FF0153A9
:104DA000D367E4F5FF53E6BF75FF0175D825F5FF1E
:104DB00075B503F5FF75B215F5FF75BA02F5FF7508
:104DC000AFB3F5FF75CD0AF5FF75CB08F5FF75CAD2
:104DD00012F5FF75BF0EF5FF75CC96F5FFF5BDF525
:104DE000FF75C281F5FF75AEE1F5FF75DA55F5FF88
:104DF00075F580F5FF75E903F5FF75E933F5FF7586
:104E0000972A75FF01759B42759CA4759D29759E17
:104E100048759F2475A11275A312759AF8202B0C62
:104E2000F5FF43968090120FE04440F022E0FCA38F
:104E3000E0FDA3E02233333354F8F5F4229FEE640F
:104E400080F87480982275FF0175E46575FF01751F
:104E5000D64722C8ECC8C9EDC9CAEECACBEFCB22EF
:104E6000E4F5FF7584E6F5FF439404F5FF759814A7
:104E700022EF30E00E43F401E4F5FF43A404F5FF14
:104E8000759624EF30E10E43F401E4F5FF43A408E6
:104E9000F5FF759624EF30E20943F402E4F5FF755F
:104EA000961EEF30E30943F404E4F5FF75961075A0
:104EB000FF01EF5403600475D7122275D72D22CC61
:104EC000EFCCCFEDCF74017E00C8EFC8088005C3DA
:104ED00033CE33CED8F9FFCDECCDEF5D601B302A59
:104EE0001875FF0175DCAD75FF0175DDCDE4F5FFCB
:104EF000759A74F5FF7594842275FF0175DC5375FE
:104F0000FF0175DD33E4F5FF759A14F5FF75940420
:104F100022C22875FF03759B1F75FF0390120FE0D7
:104F2000FF20E71BE59A540FC394024012EF448020
:104F3000F0E4F5FF75C2A143FC0475FF03D228E538
:104F4000FC30E609E59A540FC3940540CCE5FC30EB
:104F5000E611E412260F75FC80F5FC75FC40E5FCBB
:104F600020E6FB302802711822E53954F0C4540FB2
:104F70002FFFC3941040027F0FEF9018D893FF22A9
:104F80007E10EE60091EEE9018D893B507F4EEC3BC
:104F9000940E40027E0DEE9018CA93FF22E4F5367F
:104FA000023E3BC2AFEF4237D2AF22C2AFEFF45264
:104FB00037D2AF227F02F1AB9002D5E09002DDF054
:104FC0009002D504F0C3940222EF24FE600C24FE6C
:104FD000600580007F01227F02227F03229004630C
:104FE000EFF0A3EBF0753601E4FBFDFF1254D67B26
:104FF000017A04793B125534E4FD7F0212503712D6
:10500000502F4404F5D290043B7455F0900463E0B3
:1050100090043CF09004367403F0900464E0FFC305
:1050200074799F90044CF0E4940090044BF022E4D7
:10503000F5FFE5D2548022E4F5FF8FD4F5FFCFEDE4
:10504000CF8FD522E53720E508123FB0E5D120E02B
:10505000FBE4F53022301305C2131244C022C0E035
:10506000C0F0C083C082C0D075D008C0FF12449683
:105070008F3AE53A64027035E53624F86025240756
:105080006002218F90044B31A845F0700B9030BD29
:105090007406F0753600218F43FA0475FF00123F45
:1050A000EA218FC2EB753600433704218FE53A645D
:1050B000016002218F31AF4002218FE530702B85D6
:1050C0003282853183E090046DF0E0FF6455600426
:1050D000EFB4540B75300575FF0075D901218F753C
:1050E000300275FF0075D908218FE53064027040E9
:1050F000319CE090046DF031C1124FC9900435EF3E
:10510000F090046DE0FFD394094006EFD394AA40D9
:10511000041155805290046DE0F53831B690121CA0
:10512000EFF075FF0090046DE0F5D9753003805FF6
:10513000E530B40522853282853183A3E090046D89
:10514000F090121BE0FF90046DE06F700590043446
:1051500004F07530008010E530640370321155752D
:10516000FF00E5D330E005123FC08023C22E123B82
:10517000DA75FF00123FB7E5D120E0FBC2EB433701
:10518000027530001538319CE538F09002D6F0D029
:10519000FFD0D0D082D083D0F0D0E032E5322407E7
:1051A000F582E43531F5832274FFF5F00226AAE595
:1051B000F754C024FF22E5F45418131313541FFFAF
:1051C00022E5F75406FFBF06037F0822E5F75406E1
:1051D000FFBF04037F0422E5F75406FFBF02037FED
:1051E00002227F012290044BE0A3E0FF2290046999
:1051F000EFF0A3EBF0900469E0517AE0FEB4020313
:105200007F0022EE701C900469E0FF517A7401F077
:10521000900438E0FCA3E0FDEF5184ECF0A3EDF046
:10522000802AED241BFFE433FEE4FCFD7B0CFAF93D
:10523000F812184EEF2405FF900469E05184E0FC59
:10524000A3E0C39FEC940050037F0022902A26E045
:10525000B4FF1590046AE0540FFFBF0103E480041B
:1052600090044AE0902A26F0902A26E060037F020C
:1052700022902A2674FFF07F012224C7F582E434AD
:1052800029F5832225E0241EF582E4342AF58322C1
:1052900090045BEFF0ED24FE601914602624027088
:1052A0003BEB2402FFE43AFE7C007D501226437D56
:1052B00060801E7104C333CE33CED8F9FF7C007DED
:1052C00028800E7104C333CE33CED8F9FF7C007D25
:1052D0006412265590045CEEF0A3EFF090045BE0BE
:1052E000710FC083C08212295790045DE02401FF32
:1052F00090045CE03400FEE4FCFD1227A5D082D0CF
:1053000083022973EB2401FFE43AFEEF78032225A0
:10531000E025E0243DF582E43404F58322EF710FAB
:1053200012293B022921E490043D713DE49004419F
:105330007144E4FFFEFDFC900445022973FFFEFD6D
:10534000FC022973FFFEFDFC0229731219B2903092
:10535000BCE014F06005A3740580059030BD7407AF
:10536000F002420A9030BDE0FF64066004EFB40131
:105370000312420A900434E0600FE4F09030B8E089
:105380007007718A60031219FD2290121DE05430DB
:1053900022E49030B8F0021A897F017E009017FC59
:1053A000E4935EFE7401935F4E24FFB322900001EC
:1053B000740193B40007E493B41802C322D322EF1C
:1053C0007011ED600775FF0143AE012275FF0153B7
:1053D000AEFE22EFB40110ED600775FF0143AE028F
:1053E0002275FF0153AEFD2275FF02E5E630E203B0
:1053F0007F0322E5E630E3037F0022E5E630E103A8
:105400007F0422E5E67F0530E0027F0122EF60079E
:1054100075FF0253E6BF2275FF0243E64022EF14F8
:10542000600F146014240270188B8075FF018DFDCD
:10543000228B9075FF018DC9228BA075FF018DCA4B
:1054400022AF038FB075FF01AF058FCB22903042A2
:105450001229DCEF1460111460182402701E918769
:10546000E580918DE5FD801C9187E590918DE5C9E2
:1054700080129187E5A0918DE5CA80089187E5B0FB
:10548000918DE5CB02260F9030450229BC12260FE4
:1054900075FF019030420229BCE4F5FFAF9122E490
:1054A000F5FFAF9222902CE1E012260F902CE6E05F
:1054B000900001122621902CE7E0900002022621A4
:1054C00035F07B02FEAF01AD62AB05E4FCFD90312F
:1054D00063EBF0023022E4F5FF75D102E5D120E064
:1054E000FBE4F5FFF5D1EF6008E4F5FF43D28080DF
:1054F00006E4F5FF53D27FEB6006E4F5FF43D104E9
:10550000ED6006E4F5FF43D10822E4F5FF75D10212
:10551000E5D120E0FBE4F5D1F5FFEFB12BEE540F20
:1055200042D6E4F5FFCFEDCF8FD422F5D7E4F5FFD7
:1055300053D6F022E4F5FFE9B12BEA540F42D6220C
:10554000E4F5FFEFF5D8E4F5FF53D60FEE540FC4A2
:10555000F854F0C8E4C4540F4842D622E4F5FF8F53
:10556000D422E4F5FFE5D1540133333354F8FFE49A
:10557000F5FFE5D354074FFF22903225122FF5E9AE
:10558000F07F017C127D01E4FEED2EF582E43CF516
:1055900083E02FFF0EEEB412F0901213E06F600A5A
:1055A000903225122FE7E412260F2275FF01E5D570
:1055B00030E602C32253FACFEFB4080543FA308035
:1055C00012EFB4040543FA208009EFB4020543FA50
:1055D000108000D322AFF4EF547FF5F4302F05EFA5
:1055E0004480F5F475FF01E5D520E702C322E5F418
:1055F000D330E601C32275FF018FDA22D123AFD960
:1056000022E4FFE5F754C0600280F175FF01E5D5A3
:1056100030E30F12477350F3B1FCEF60EE124773A3
:1056200050E92275FF01E4F5EA75EAFF2275FF01F2
:10563000E5D520E602C322E5FA540360FA75FF01BE
:105640008FC3D322CEEFCE75FF01E5D520E602C38E
:105650002243FA04E4FDEDC39E50077F55D12D0D82
:1056600080F4E5FA543070047F0F80027FF0D12D72
:10567000D322E5F71322EFB40109D2AD75FF014340
:10568000AE4022C2AD75FF0153AEBF2275C80122E4
:10569000E5C85402FF75C80222E5C85401FF22E4A0
:1056A000F5FFED540F4FF5DB22E4F5FFEF25E0F5B4
:1056B000DCE4F5FFEDF5DDE4F5FFECF5DDE4F5FF09
:1056C00043DB10229032A91229DCE4F5FFE5DB2050
:1056D000E4FBE4F5FFF5DCFDE4F5FF9032A91229C7
:1056E000BC75F002D1FF122701AEF0F5DDE4F5FF45
:1056F000EEF5DD0DEDB404E0E4F5FF43DB1022ED43
:10570000A4F58285F08322E4F5FFE5DBC330E401F4
:10571000D322F582E43583F58322FF1229BC900061
:1057200002EF022621EEF0A3EFF0A30229DCEDF058
:10573000A30229DC122621E92402F9E43AFA22EF35
:10574000F0A3EDF0A3EB227B017A2B796790306810
:105750000229DCF0A3F0A3F0A3F0A322A3F09000B1
:105760000102258D1229BC900003227B01902F930A
:105770001229DC902F9622E0FCA3E0FD4C22122996
:10578000BC902F8A1229DC902F8D228F828E837FEE
:1057900001022B077B017A12791B9030C70229DCAA
:1057A0007B017D01121B1F7B0122F9E43AFA1226CC
:1057B000D6FFAEF022F9E43AFAEF02260F1229BC26
:1057C000740102260FAA06A907022B031229BC9016
:1057D000000402258DE0FF902F3CE4F0A3EFF022BF
:1057E0007B0190314B0229DC9002DEE0FEA3E0FF5A
:1057F0001219A8D3EF94C8EE9400221229DC0225D6
:1058000074EFF0A3EDF0E422E0FF2400F582E4342D
:1058100023F583221229BC7D05E4FF021962903032
:10582000E90229DCE0FDA3E0903017CDF0A3EDF014
:1058300022EDF0A30229BC9021C87487F022E0FF7A
:10584000A3E0902E40CFF0A3EFF022547FFFE0546E
:10585000804FF022F0E4A3F0A304F0227E607F6A80
:10586000021976AF03EAF0A3EFF022FFE4F0A3EF12
:10587000F022E0FFA30229BC7A2B79777F08021976
:105880008A7B017A28796F22F9E43AFA740122E0DE
:10589000FF7405C39F22E0FCA3E0FDD39FEC9E2292
:1058A000FFFEFDFC122973E4229002D6E0FD0219EE
:1058B000E41229BC740202260F1229BCEF12260F33
:1058C000D322FE12463390120FE022EEF0A3EFF047
:1058D0007B01227C00FFEC35F0FE22AF05ECF0A34B
:1058E000EFF022A429F9EA35F0FA22758300EF02DD
:1058F00026218B828A83022B077425F0A374FFF084
:105900002224FBFFE5F034FF22FFFFFFFFFFFFFF34
:10591000FFFFFFFFFFFFFFFFFFFFFFFFFFFFFFFF97
:10592000FFFFFFFFFFFFFFFFFFFFFFFFFFFFFFFF87
:10593000FFFFFFFFFFFFFFFFFFFFFFFFFFFFFFFF77
:10594000FFFFFFFFFFFFFFFFFFFFFFFFFFFFFFFF67
:107FB000FFFFFFFFFFFFFFFF7FC6788F685B1C8519
:107FC00001590154F8F0FFFFFFFFFFFFFFFFFFFF24
:107FD000FFFFFFFFFFFFFFFFFFFFFFFFFFFFFFFFB1
:107FE000FFFFFFFFFFFFFFFFFFFFFFFFFFFFFFFFA1
:107FF000FFFFFFFFFFFFFFFFFFFFFFFFFFFFFFFF91
:10800000EF547024F0602624F0603C24F060522489
:1080100030706730300B117B8002C333D8FC428054
:1080200022117B8002C333D8FCF452802230300B03
:10803000117B8002C333D8FC429022117B8002C3A3
:1080400033D8FCF452902230300B117B8002C333C2
:10805000D8FC42A022117B8002C333D8FCF452A08A
:108060002230300B117B8002C333D8FC42B0221186
:108070007B8002C333D8FCF452B022EF5407FF7464
:1080800001A8070822EF547024F0601A24F060243D
:1080900024F0602E2430703775FF01117B8002C3FD
:1080A00033D8FC42FD2275FF01117B8002C333D817
:1080B000FC42C92275FF01117B8002C333D8FC4208
:1080C000CA2275FF01117B8002C333D8FC42CB2248
:1080D000EF547024F0601B24F0602624F0603124FB
:1080E00030703B75FF01117B8002C333D8FCF45222
:1080F000FD2275FF01117B8002C333D8FCF452C905
:108100002275FF01117B8002C333D8FCF452CA22CE
:1081100075FF01117B8002C333D8FCF452CB22904F
:108120002863E09032F8F0EF6023E0FF131313545C
:108130001FFE51272E125712C083C082E0FE117B12
:108140008002C333D8FCF45ED082D083F09032F842
:10815000E004FF9032B8EFF090286712D9298E839F
:10816000A3A3E033333354F89032B9F0200B02412B
:10817000009032B9E0FF9032B8E0FEC39F5049EE64
:10818000131313541FFF51272F12F6EBFD7C00EE43
:1081900051048005C333CE33CED8F912F6F46020F3
:1081A0009032B8E0902863F01247FCAD0790286346
:1081B000E004FF7A1A7B2012DD57EF704502EF4B87
:1081C0009032B8E004F080A9C214C20B9028667403
:1081D00003F012DDBA7407F0E4A3F09028057403ED
:1081E000F0902864E0FF5116902D307403F0902831
:1081F0000B12F82490280A510F70077F0202A9235E
:10820000C21422ED5407FF74017E00A8070822E083
:10821000FB129FD4EF2290121BE0FD7B017A28799C
:1082200006902D2D0229DC902867E0FCA3E0F58262
:108230008C83A3A3A3E582229032FAEFF012DFAB86
:1082400060037F002212DF69A37416F090121BE016
:10825000902871F09032FA12DE2B796F512174035D
:1082600012DDC2A3741AF0A37416F09032FA510F03
:10827000700302DFDE7F0122AD07ED547024F06051
:108280002024F0603324F060432430705451038084
:1082900005C333CE33CED8F9AC8012E05E6001D393
:1082A0002251038005C333CE33CED8F9FFAC90EC16
:1082B000FBEF5BC36001D32251038005C333CE3390
:1082C000CED8F9ACA012E05E6001D3225103800544
:1082D000C333CE33CED8F9FFADB0EF5DC36001D369
:1082E00022C322902ED21229DC1229E5902ED5121B
:1082F00029DC902ED2128BA312D514C20590221520
:10830000F0902ED51297C612F7F47F04129B9E2090
:10831000321C122E7B12D86C128BF612D828600EEB
:10832000902ED2128BA3128B84448012260F902E93
:10833000D2128BA3128B8420E70261F290121BE011
:108340006032300F2F128B982405128B84540FFF4C
:108350006405700261F2EF64087019128B98240BA7
:10836000128B84128B8B128BC8FA12D36F12D81C0B
:10837000700261F2200A030289D6200C75128B98D4
:108380002405128B84540FFF64086066EF6401605B
:10839000030289D6128B982406128B84FF30E70DD6
:1083A000128B98240A128B845407FE80027E00EE02
:1083B000FD7C00128B98128BAEE92DF9EC3AFA1283
:1083C0008B816403702CEF30E70D128B98240A1216
:1083D0008B845407FF80027F007E00128B98128BE3
:1083E000AE12C35912D36F12F7EE12D828700302DF
:1083F00089D6128B982408128B849023B4128BBFD9
:1084000024BA128B84902206F0128B982405128BCA
:1084100084540F24FE700281FA147002A1F624FE27
:1084200070030289CB24FD7002C13124076003026E
:1084300089D6128B982407128B84FF740BD39F402C
:1084400002C15F128B982406128B8430E70D128BC9
:1084500098240A128B845407FF80027F007E00124A
:108460008B98128BAE1290A812C359C003C002C0E1
:1084700001902ED212A203F9E43AFA122A05128BC5
:10848000982406128B8430E70D128B98240A128BE5
:10849000845407FF80027F00128B982407128B847C
:1084A000C39F24F512AF46129561128B98240912CE
:1084B0008B84128BDF6007EFF460030289D6902E65
:1084C000D2128BA3128B84440112260F128B982494
:1084D00004128B84FF902ED212E3EC129561128B62
:1084E000982405128B8420E7030289D6902ED2129D
:1084F0008BA3128B8444040288D3128B9824061217
